:040000006F00806E9F
:1000040000000000000000006F0080086F0040281E
:1000140000000000000000000000000000000000DC
:1000240000000000000000000000000000000000CC
:100034006F004006000000006F00E00500000000B3
:100044006F0080086F0060056F0040056F00200599
:100054006F0000056F00E0046F0040060000000020
:100064006F0060046F0040046F0020046F00000400
:100074006F00E0036F00C003000000006F00600326
:100084006F0040036F0020036F0000036F00E00265
:1000940001A001A001A001A001A001A001A001A054
:1000A40001A001A001A001A001A001A001A001A044
:1000B40001A001A001A001A001A001A097D0FFDF31
:1000C400E7802048730020303727004083476700CB
:1000D400858BB9C785472303F7009707000083C7BB
:1000E4009772850793F7F70F17070000A30DF770B2
:1000F40017070000034717716304F704170700008C
:1001040003476770631AF700B716004003A7C60ACF
:100114000966518F23A6E60A1307800C6384E7005F
:100124007300203097070000A38F076C3717004037
:100134008327870A8D66D58F2324F70A730020301E
:10014400B716004003A7C60A0566518F23A6E60A20
:1001540075B737170040130670052300C7049306CC
:1001640080FA2300D7048347B7049375050293F7F5
:10017400F70DA305F70423000704ADC58347A700C3
:10018400918B8DE32300C7042300D7048346A70083
:100194009307004B93E646002305D70001000100B6
:1001A400FD17EDFFB7170040930670052380D704B1
:1001B400130780FA2380E7047D892394A7000100B4
:1001C400010001000100238007042380D704238059
:1001D400E7049306100537270040A303D780238044
:1001E4000704828093770504BDC78347A700C18BAA
:1001F4008DE32300C7042300D7048346A700930795
:10020400007D93E606012305D70001000100FD17D8
:10021400EDFF37170040130670052300C70493064B
:1002240080FA9377F5012300D70493E70704231496
:10023400F70001000100010001002300070423006E
:10024400C7042300D704B727004093063005A383CF
:10025400D7802300070482804111814601468145ED
:10026400114506C6A922B71700401307700523805D
:10027400E704130780FA2380E70403C767041367BE
:1002840017002383E70423800704B24041018280DE
:100294008146014681451145192AB71700401307C5
:1002A40070052380E704130780FA2380E7047D5751
:1002B4002396E70203C76704136717002383E70441
:1002C4002380070401A0931745003385A74001004C
:1002D4007D1575FD828009CD01479166938786A9B6
:1002E4000100FD17F5FF050742074183E318E5FE0A
:1002F40082802303048015472303E4800100230242
:10030400A480828083076480E3CE07FE23030480F5
:10031400828083076480E3CE07FE034544808280A5
:1003240083076480E3CE07FE2302A4808280411108
:1003340026C44AC24EC006C61377F50BAD47AA8938
:100344002E8995446306F70019456537653F8D444A
:100354004E854537FD59FD1463983401B240A244DB
:100364001249824941018280135509011375F50F21
:10037400453F2209CDB7011126CC06CEB7040800AB
:1003840051371545BD37713769372AC6A53F324500
:100394009377150089EB136515001375F50FF2407B
:1003A400E24405618280FD14E9FC0145CDBF397149
:1003B40026DC4ADA4ED852D656D45AD25ED006DE5D
:1003C40062CE66CCB7E700E07D5783AA070022C659
:1003D40003AA470023A0E71823A2E718B717004091
:1003E400130770052380E704130780FA2380E704CA
:1003F40083C74704930B75FFB684E20793FBFB0F97
:100404008546AA892E8B328937240040E18701571B
:1004140063FA76016308D500894613070002631363
:10042400D5000157D98F93F7F70FB71C00402382EB
:10043400FC0411472303E4801305F00F5D3D094CD0
:10044400D13563697C11B70707003E9B37870700E6
:100454007955637EEB02B3079B00636AF702A947F1
:100464006399F90689E48144713D26850DA0DA85F6
:100474000945753D05090345F9FFFD14050B4D3587
:1004840081C49377FB0FFDF7FD3569FD7D55B717E3
:100494000040130770052380E704130780FA2380C4
:1004A400E70403C74704418B2382E704F250B7E70C
:1004B40000E023A0571123A24711E25432445259B9
:1004C400C259325AA25A125B825B724CE24C2161CD
:1004D4008280A5476395F90685691309F00FB30671
:1004E4009900B3742B01B6941349F9FFB3749900BE
:1004F400856B33796901416B9387F9FFB3F7270162
:1005040099E363FC340193D94900C147E3E637FF1B
:1005140099BF0569C1697D19D9B71305800D638831
:100524006901130500026384790113051008CA8563
:10053400FD3B913521DD4E99B3843441D9B7DA8539
:100544002D45F533CA94E30099F20509D933A30F75
:10055400A9FED5BF9387F9FF93F7F70F636CFC08E7
:1005640003C75C04B70708001377070219E3B787CA
:1005740007007955E37DFBF033079B00E3E9E7F0DF
:1005840089476390F9048980D549E38E04ECDA85C0
:100594000945713B11090327C9FF91472320E480D2
:1005A40003076480E34E07FE23033481FD17EDFB4C
:1005B400FD14110B81C49377FB0FE9FF6D3B71F5BB
:1005C400F1B58547E387F9F4DA852D458D339389B1
:1005D400F4FFE38A04E8353B93F7390091EB832673
:1005E40004800327090093074900E39FE6E63E8958
:1005F400CE84F1BFB5476396F9001305900BD53946
:100604009DB5B1471305B00AE38BF9FE9947639E84
:10061400F902DA852D45213B81448D4BA149D53919
:1006240063967401832704802320F9008504E398EA
:1006340034FF8327048013172B016355070023120B
:10064400F90015B52322F90039BD9D476399F902D4
:1006540081451305B004E139BD4423200900232258
:100664000900FD597D3193F77400CA9703C7070049
:10067400FD14398D2380A700E39634FFEDB3A14721
:100684006392F904CD398144630D0B008D479304C3
:10069400C0036308FB009304000563048B01930407
:1006A40040041375C507E30095DC19459931993960
:1006B400054581312685AD3109459D316D39E314F8
:1006C40005DAE9B391476399F9001305600615311A
:1006D40015391305900925B7E38709D8F15469B38F
:1006E8009741002093818111178100201301019106
:1006F80013054000973500209385451017360020D4
:100708001306C67D63FAC5008322050023A05500A1
:1007180011059105E3EAC5FE1725000013054543B9
:10072800974500209385858D174600201306068D72
:1007380063FAC5008322050023A055001105910521
:10074800E3EAC5FE174500201305458B9385C1F8DC
:100758006377B500232005001105E36DB5FE93020C
:10076800800873A00230973200209382220993E216
:10077800120073905230970200009382022A7390FD
:100788001234730020303D432A876373C302937782
:10079800F700BDEFADE5937606FF3D8ABA960CC328
:1007A8004CC30CC74CC74107E36BD7FE11E28280EC
:1007B800B306C3408A069702000096966780A60093
:1007C8002307B700A306B7002306B700A305B700A1
:1007D8002305B700A304B7002304B700A303B70099
:1007E8002303B700A302B7002302B700A301B70091
:1007F8002301B700A300B7002300B700828093F558
:10080800F50F93968500D58D93960501D58D61B723
:10081800939627009702000096968682E78086FACC
:100828009680C1171D8F3E96E374C3F8A5B77971FA
:1008380006D622D426D24AD04ECE52CC56CA5AC850
:100848005EC662C466C2174700201307E78983475C
:10085800172003470720998F93F7F70F85EB138528
:1008680001AF03441520834705201D8C1374F40F32
:1008780021ECB250225492540259F249624AD24AA7
:10088800424BB24B224C924C4561828013070004C4
:1008980013F4F70F6369F716938741828C43228616
:1008A8001745002013054584938505047126228584
:1008B800EF00D03D138501AF034415208347052081
:1008C8001D8C1374F40F55D422869385C186AD26EA
:1008D8009304F4FF93F4F40F9387D186938CC18625
:1008E800BE94930950021389C182172B0000130B81
:1008F800ABFA172C0000130C6CFA254A930B400630
:10090800930AF00339A863EFFA08B306F9008507DC
:100918002380E600173700202302F76E850CE38A50
:1009280094F503870C009737002083C7276DE31CD5
:1009380037FDFD1713F4F70FDA851385C182973752
:100948000020238D876AEF1010713DE5E2854A8506
:10095800EF10707021C94A9483050400938505FD42
:1009680093F5F50F6367BA0A0307F4FF130707FD4A
:100978009377F70F6366FA028307E4FF931627005D
:1009880036970607938707FDBA9513F7F70F93F580
:10099800F50F6367EA00B3877703BE9593F5F50F04
:1009A80005452D2C1306000481454A8597370020FC
:1009B80023860764C93B9DB74A9483050400938541
:1009C80005FD93F5F50F6363BA040307F4FF1307F6
:1009D80007FD9377F70F6366FA028307E4FF931620
:1009E800270036970607938707FDBA9513F7F70F81
:1009F80093F5F50F6367EA00B3877703BE9593F520
:100A0800F50F014579BF1304000479B58145014507
:100A180049BF814571B741111305800406C6973057
:100A28000020E780C0F2138501AF7D2A173500202A
:100A38001305856B552AA12C89222945973000205A
:100A4800E7802009ED33D5BF011126CAAA841735DE
:100A580000200345F55A06CE22CC4AC84EC652C4D9
:100A68002E8AEF109045972700009387A7E39043BD
:100A7800D443173400200344A458EF1040732A8944
:100A88005285AE89EF10704397270000938707E2DD
:100A98009043D443EF10A0712A86AE864A85CE854E
:100AA800EF00F0222A892285AE89EF10104197279E
:100AB8000000938727E09043D443EF10406F2A86C5
:100AC800AE864A85CE85EF009020EF105039137519
:100AD800F50F97370020A385875297370020238189
:100AE800A752A9E4930780253305F502EF10F03CDF
:100AF80097270000938787DC9043D443EF1020109A
:100B080097270000938707DC9043D443EF10200F0A
:100B1800EF10F03497370020A382A74EF2406244CA
:100B2800D2444249B249224A056182808547E39707
:100B3800F4FE930780253305F502EF101038972748
:100B480000009387A7D79043D443EF10400B972713
:100B58000000938727D79043D443EF10400AEF1043
:100B68001030F240624497370020238AA748D244C5
:100B78004249B249224A0561828041119145056581
:100B880006C697370020238C074697370020A3878F
:100B9800074697370020A3840746EF0080799145E0
:100BA8000965EF000079A9450145793DA945054545
:100BB800613D0565130585BBEF003004372700400C
:100BC8008347270093E717002301F700B240B7E7F0
:100BD80000E0416723A0E7104101828093074006A7
:100BE80063E3B70095B5828023000520A3000520A4
:100BF800828031C2834715201303F01F3E969378F5
:100C0800F60F83460520138817003306F50033874F
:100C1800D7401377F71F9377F80F038805006315FC
:100C2800670085062300D52023000601A300F520D0
:100C38008505E39817FD8280834705200347152023
:100C4800AA866303F70429C27D161376F60F0506F4
:100C58002E872E968545998DB6978387070033058D
:100C6800B7000507A30FF7FE83C706201375F50F16
:100C7800850793F7F70F2380F6206309C70003C899
:100C88001620E31BF8FC82800145828082809387CE
:100C980041CF23AEF180938741DB23A0F182938774
:100CA80041E3411123A2F182938741EB06C623A4B5
:100CB800F182EF00C0755D23716793878180130708
:100CC800072098C321472383E70023920700B240F7
:100CD800B7E700E03707400023A0E7104101828012
:100CE8000DC10147938581829C41BA9783C607004D
:100CF80005071376F70F93C6F6FF2380D704E3653D
:100D0800A6FE6F00007A15C51306F5FF1376F60FD9
:100D180013061604130700049385C1819C41BA97F2
:100D280083C60700050793C6F6FF2380D704E31799
:100D3800E6FE6F006078378700408347670093F7C7
:100D4800F70F93F62700E1C6011106CE22CC26CA7A
:100D58004AC84EC6834777009306000393F70703F4
:100D68006388D708834777001307400293F7F70390
:100D7800636BF70617270000130747B58A07BA976A
:100D88009C43BA97828783C7F1801547638BE73CFA
:100D980019476390E73C13890181035409009307BD
:100DA800000463F48700130400049387C1819384CB
:100DB800418188438C4022869379F40FEF10501EAE
:100DC800984083560900B7870040818E3A9423AA39
:100DD80081802398D1802380370303C727021347D4
:100DE80007042381E702B787004009472383E70008
:100DF8003787004083477700E207E18763C5070428
:100E0800F2406244D2444249B2490561828093F675
:100E180017008DC2A301070089472301F702C947BC
:100E28002303F7022305F7022307F7028547230365
:100E3800F700828093F64700B9CE83475700914761
:100E48002303F7008280930720FC2301F70213860F
:100E5800C181084293050002834775000347650076
:100E6800A207D98F2398F18003471500A387E18053
:100E780003440500937604066382B602C9EAA946CC
:100E880063E8E60297260000938686AD0A07369740
:100E98001843369702872303F700828093071002CE
:100EA8006308F71A930720026303F7066301D7065E
:100EB800B78700401307F0FC2381E702B78700409B
:100EC80009472383E700F2406244D2444249B249C9
:100ED800056182809377F4010947E39BE7FC0347A8
:100EE8004500630DF73263FBE72C93071008630C8A
:100EF800F73093072008E31DF7FA37870040834748
:100F0800A70293F7C70B93E727002305F7026204AC
:100F18006184814763400402378700402300F70259
:100F2800930700FC2301F702B78700400947238392
:100F3800E70051BF03D7018193060004BA8763EA2B
:100F4800E600C207C1831D8F2398E18093F7F70F4E
:100F5800E1B793070004F5B73787004083472703B5
:100F680093C707042309F7028347270393F7C70F9B
:100F780093E727002309F702BDB5B787004003C7E9
:100F8800870083C6F18013070002638DE61823806B
:100F9800070203C72702136727002381E702378761
:100FA80000408347270293C707082301F70225BD9E
:100FB800378700408347770093F70704E38507E204
:100FC80093874182034687008C43138501AF15310F
:100FD80019BD378700408347770093F70704E384F8
:100FE80007E003458700ED39FDBB3787004083479D
:100FF800770093F70704E38807DE8347270393C73F
:1010080007082309F70203458700F539E9BB378745
:1010180000408347670293F7C70F93E7270023032E
:10102800F702D1B3378700408347A70293F7C70F6A
:1010380093E727002305F7027DB3378700408347EE
:10104800E70293F7C70F93E727002307F70261BB6F
:101058009387818023AAF1805DBD2300050003D713
:1010680001818547E3F5E7EA85472398F18045B58F
:1010780083472500173700202305F7F849BD973720
:10108800002083C707F82300F50003D701818547AF
:10109800E3ECE7FCADBD0347350083462500094670
:1010A8002207558F935687006388C6148D4563833E
:1010B800B61205476389E602E38C07DE23980180B0
:1010C800C5BB834725002398F18091B5230005000F
:1010D80018428947A300070003D70181E3F9E7E233
:1010E8002398F1802DB5938581F723AAB18003C792
:1010F80081F7420741836378F70A93070004BA84AB
:1011080063F4E70093040004C204C1802686239890
:10111800E180EF10E068938741819C43BE9423AA45
:101128009180F5B39387C1819C431307100A83C646
:1011380007006387E6049C4323A4F180B787004037
:101148002380070203C727021377F70F2381E702DB
:10115800B9B5B78700402380070209472381E70212
:1011680059B1378700408347370083C6018193F719
:101178000708D58FA301F70089472301F702A5B116
:1011880083C6170013071002E397E6FA83C64700E1
:1011980003C7570083C767002386D180A386E180F1
:1011A8002387F18061BF13070004BE846374F700CE
:1011B80093040004C204C1802686A1BF8547E319B1
:1011C800F7CE378700408347670293F73707230333
:1011D800F70235BB1377F70F85456309B70625C3B3
:1011E8006307C704E31AD7EC971500009385C57BFE
:1011F80023AAB1805147F5BD938541F323AAB18055
:1012080003C761F3FDB5378700408347670293F74B
:10121800C70B93E727002303F702D5B937870040A8
:101228008347A70293F737072305F702CDB1971530
:1012380000009385A57623AAB18031475DBD9385CB
:10124800818123AAB18003C7818165B59715000004
:101258009385C57323AAB180394761BD370610014C
:10126800138781F71306261110C3370600400906B5
:1012780050C337262257130666A810C7370601023F
:10128800050650C7130630102318C7003707430058
:10129800938741F31307972098C3370700801307F4
:1012A8002710D8C3371704001307879C98C7370738
:1012B8000524050798CB37170105D8CB130740122B
:1012C80098CF3727020213074740D8CF37270600A1
:1012D8001307574098D33707058113071770D8D3DA
:1012E8003717000A0D0798D7416713079740D8D7D3
:1012F8000567130727A098DB3707058213070770D0
:10130800D8DB1167B706020209079385061098DF34
:1013180093867650130700042390E704CCC7D4DFE4
:1013280023810704B70709049387473023ACF1806A
:101338008280914763E7B702171700001307076811
:101348008A05BA959C41BA978287B717004003A7C8
:10135800470B498F23AAE70A03A7070A598D23A039
:10136800A70A8280B717004083A6470B1347F5FFEB
:10137800758F23AAE70A03A7070A598D23A0A70A8E
:101388008280B717004003A7470B1345F5FF698F05
:1013980023AAE70A03A7070B698F23A8E70A03A76D
:1013A800070A798D23A0A70A8280B717004083A671
:1013B800470B1347F5FFF98E23AAD70A83A6070B15
:1013C800558D23A8A70A83A6070A758F23A0E70AC5
:1013D8008280B717004083A6470B1347F5FF558D4A
:1013E80023AAA70A83A6070BF98E23A8D70A83A6E0
:1013F800070A758F23A0E70A8280B7270040C8C76D
:1014080009472380E70011472380E7008280B787D8
:101418000040238007001307C0FC2386E700A3864B
:10142800E70003D7C1812398E70003D70182239AF5
:10143800E70003D74182239CE70003D78182239EDC
:10144800E70089462381D70249472383E70223859A
:10145800E7022387E7022389D702A381070013073E
:1014680090022380E700B716004003D7A601136750
:10147800070C239DE6007D572383E700130710F828
:10148800A380E7001D472381E7008280B7870040DB
:101498002384A70203C7A7021377C70F2385E70290
:1014A8008280B78700402386A70203C7E702137725
:1014B800C70F2387E7028280B78700402388A702E7
:1014C80003C727031377C70F2389E70282803708EA
:1014D800100001117D183377B80026CA3378D80078
:1014E80093D4450113D34601131E37004EC6135734
:1014F800D5010E089357D60193F4F47F1373F37F45
:1015080006CE22CC4AC893D9F50193DEF60133679B
:10151800C701131F350033E80701931F3600338EC8
:1015280064406380D9196356C0136304031CB7066B
:1015380080009307F07F3368D800638FF4369307F1
:10154800800363C0C735FD4763CDC7471305000255
:101558003305C541B3D7CF01B316A8003399AF00FF
:10156800DD8E33392001B357C80133E926011D8FB9
:1015780033092F41B3372F013306F74093178600FD
:1015880063D40724370780007D173374E600630CA3
:10159800042C2285EF106019130785FF93070002BA
:1015A800998FB357F9003316E400D18F3319E90046
:1015B8006341972A33059740130615007D47634D0D
:1015C800C73813070002118FB356C9003319E90051
:1015D8003397E700558F333920013369270133D614
:1015E800C70081449377790081CF1377F900914739
:1015F8006308F70013074900333927014A963A89E7
:101608009317860063D6071C138514009307F07F91
:10161800CE856304F520B70780FFFD17F18F9398F7
:10162800D70113593900A607B3E82801B183137508
:10163800F57F9396C7005205F2406244B182FE05D9
:10164800C98ECD8ED2444249B2494685B6850561D8
:101658008280631E0E0A138314001373E37F6317DB
:101668000322B367E701B368F801639D041A63872F
:101678000740638608443309FF41B30707413336FF
:101688002F013386C7409317860063D6074C3389EA
:10169800EF41B307E84033B62F013386C740F689D8
:1016A80091B76350C00F6300030CB706800093071F
:1016B800F07F3368D800638AF43A9307800363CBDA
:1016C800C713FD4763DFC73513090EFE93070002F2
:1016D800B3562801630AFE00130900043309C941FF
:1016E80033192801B3EF2F013339F0013369D900D9
:1016F80031A2B367F801638A071C9307FEFF638C66
:1017080007389306F07F6309DE1A3E8E0DBDB305D8
:10171800934063910422B367E70163870732938795
:10172800F5FF638107449306F07F638CD520BE855F
:101738009307800363CCB72AFD4763CFB73C930771
:1017480000028D8F3319F700B356BF00B317FF009F
:101758003369D900B337F0003357B7003369F9005C
:101768003308E84041ACB367F80163800734930756
:10177800FEFF638A07209306F07F6308DE2E3E8E05
:101788002DBF631E0E149386140093F7E67F6391B2
:101798000734B367E7016395042C6380073EB3679A
:1017A800F801638E07303309FF01B3070701333FA0
:1017B800E9013386E7019317860063D70700B70767
:1017C80080FFFD177D8E854493777900E39F07E0BE
:1017D8009317D60193583900B3E8F80093573600A9
:1017E8001307F07F638DE404B207B18313F5F47F28
:1017F800CE8581B53369F801333920017A99B33739
:10180800E9013386E70093178600E3DF07FA8504CA
:101818009307F07F6396F418CE851305F07F814710
:10182800814801BDC1EB6384083A931636009317CB
:10183800D8018D82B3E8D700F68993573800B3E70B
:10184800F800F9DB81451305F07FB70708008148E8
:10185800CDB3370680FF7D167D8E93777900998CFE
:10186800E39507D8B5B74A85EF00306C13078501B3
:10187800FD47E3D5E7D2130685FFB317C900014931
:1018880005BB3369F80133392001DDB13309FF4164
:101898003306074133342F013304864093178400FD
:1018A80063CD0724B3688900E39308CE8147814953
:1018B80081441DBFE39808F80E059317D7010D81E1
:1018C800B3E8A700935737009DBF0E059317D701BC
:1018D8000D81B3E8A700F2849357370011B7330599
:1018E800934063820412B70680009307F07F558FF8
:1018F800630DF32E9307800363CBA720FD4763C3D3
:10190800A72A93070002898F3319F700B356AF004F
:10191800B317FF003369D900B337F0003357A70076
:101928003369F9003A987E99B337F901338607018C
:101938009A84D1BDB70680009307F07F558FE319CD
:10194800F3DE931736008D839318D801B3E8170197
:10195800F68993573800E5B5130715FE930600027C
:1019680033D7E700630AD600930600043386C640DF
:101978003396C7003369C900333920013369E90058
:101988000146814491B53309FF01B3070701333696
:10199800E9013E96931786008544E3D707E2894418
:1019A800B70780FFFD17F18F135719001379190036
:1019B800336927019398F70133E9280113D61700F3
:1019C80015B113090EFE93070002B3562801630AE6
:1019D800FE00130900043309C94133192801B3EF84
:1019E8002F013339F0013369D90059B63369E7015A
:1019F8003339200133892F41B3B72F013306F8401B
:101A08009A84F689A5BEB367E7016382071893072E
:101A1800F5FF6384071C9306F07F6304D5123E85A7
:101A2800D1BD93070002B387C741B316F8003399B5
:101A3800FF0033D6CF01D18E33392001B357C80107
:101A480033E926013E975DBB931736008D839318C3
:101A5800D801B3E81701AE8493573800F68949B323
:101A6800EDC33369F801E31F09DC0E059317D701AD
:101A78000D81B368F50093573700D1B36381080E21
:101A8800931636009317D8018D82B3E8D700F689EC
:101A98009357380091BB3309FF41B3070741333FE0
:101AA8002F013386E7418544D1BC0E059317D70132
:101AB8000D81B368F500F2849357370015B30E050E
:101AC8009317D7010D81B3E8A7009357370029BBB7
:101AD8009307F07FE382F6D43309FF013336E90137
:101AE800B3070701B2979398F7011359190033E91F
:101AF800280113D61700B684C1B93389EF413307DB
:101B0800E84033B62F013304C740F68949B4336936
:101B1800E7013339200101BD938705FE93060002D2
:101B2800B357F700638AD50093060004B385B6401F
:101B38003317B700336FEF003339E0013369F90029
:101B480055BD931736008D839318D801B3E8170154
:101B580093573800EDB1B368C900E39708C68147C9
:101B6800814959B13389EF41B307E84033B62F01B2
:101B78003386C740F689854411B493163600931707
:101B8800D8018D82B3E8D70093573800B1B99316BE
:101B980036009317D8018D82B3E8D700AA849357EB
:101BA80038003DB9930705FE93060002B357F700C6
:101BB800630AD500930600043385A6403317A700AF
:101BC800336FEF003339E0013369F900A9BB814570
:101BD8001305F07FB7070800A9BC3309FF01B30755
:101BE80007013336F9013E9675B3931636009317FD
:101BF800D8018D82B3E8D7009357380089B139717D
:101C080093D7450122DC4AD856D22A891394C500B5
:101C180006DE26DA4ED652D45AD05ECE13F5F77FBA
:101C2800318093DAF501630B05109307F07F630B9E
:101C3800F514135AD9010E0433648A00370A800058
:101C4800336A4401131B3900930415C00144814BC6
:101C580013D846011399C6001378F87FB288135930
:101C6800C90093D9F601630E08089307F07F630053
:101C7800F8041357D6010E0933692701130818C051
:101C8800B70780003367F90093183600B38404411E
:101C98008145BD4733C83A0163E4871A97170000A6
:101CA800938707D30A043E9410403E960286336712
:101CB800C9009384148063120710136424008148B8
:101CC8008945C1BF1306F07F81470147B207F2502B
:101CD80062545206B1837E08D18FB3E70701D2540C
:101CE8004259B259225A925A025BF24B3A85BE8542
:101CF8002161828001481306F07FB7070800014779
:101D0800F1B73367C9004DC7630709304A8532C444
:101D1800EF00B0212246130755FFF547930685FFCC
:101D2800998F3319D900B357F60033E72701B31851
:101D3800D60026959304353F8145A1BF336A240117
:101D480063030A0636C632C46306042A2285EF00F6
:101D5800D01D2246B246AA84130755FF754A138B35
:101D680084FF330AEA4033146401335A4901336A61
:101D78008A00331B69011305D0C0B30495400144A0
:101D8800814BF9B5336A240163180A002144014BD9
:101D98009304F07F894B6DBD228A4A8B31449304AA
:101DA800F07F8D4B75B51144014B8144854B4DB582
:101DB8001364140081488545E9BD136434004A87DB
:101DC8008D45C1BD6308052E8547898F930680031D
:101DD80063DBF632014681470147CDBDCE86894790
:101DE800638BF53A8D47E387F5F085473688E383BB
:101DF800F5FE1385F43FE357A0FC93F7780063944E
:101E0800072893D638009317770063D80700B707D9
:101E180000FFFD177D8F138504409307E07FE3C320
:101E2800A7EA1316D70193179700B1833367D60033
:101E38001376F57F61BDD6865287DA88DE8545B789
:101E4800636F4721630BEA20DA86FD145284014B45
:101E58009317870013D388013363F300935E03015C
:101E6800B357D403131F0301135F0F0193D5060162
:101E7800139E88003374D4033307FF024204C18DD4
:101E880063FBE5009A951386F7FF63EC652663FA12
:101E9800E526F9179A95998D33D7D503C206C182DD
:101EA800B3F5D5033306EF02C205D58D63FBC50034
:101EB8009A959306F7FF63E4652463F2C5247917BE
:101EC8009A95C20741645D8F9307F4FF3375F70055
:101ED80093580701935F0E01B377FE00B302F50232
:101EE800B386C540B383F80293D502013386AF02A7
:101EF8001E962E963385F803637376002295C16883
:101F0800FD1893550601337616014206B3F81201FF
:101F1800AA95469663E4B6126380B6123306CB40A0
:101F28008D8E333BCB00338B66411385F43F630AB8
:101F38006317B358DB0393550601337BDB03B30602
:101F48001F03420B33EB6501637BDB001A9B938510
:101F5800F8FF636B6B206379DB20F9181A9B330B4E
:101F6800DB40B356DB0342064182337BDB03330F8E
:101F7800DF02420B33666601637BE6011A9693859E
:101F8800F6FF6365661E6373E61FF9161A96C208A4
:101F9800B3E8D8009395080193D20801C181B38EA4
:101FA800F5023306E641B385BF0293D60E01B38727
:101FB800F202BE95AE96B38F5F0263F4F600C16776
:101FC800BE9FC165FD1593D70601ED8EC206B3FE0F
:101FD800BE00BE9FF696637DF6091A969387F8FFB2
:101FE8006367661A6366F619630DF61BBE8893E885
:101FF800180011B54A85152F13075501F1459304AB
:1020080005022246B246E3DBE5D4130485FF331A02
:102018008900014B8DB3328532C4012F1307550156
:10202800F146AA87224613050502E3D8E6CEE11752
:102038003317F6008148F5B9E372CBEE729B33355E
:10204800CB011A95AA961305F7FF6378D30263E6C6
:10205800B6106382D5102A87D1B5E3671BDF935585
:102068001B009316FA0113541A00CD8E7E0BCDB3C4
:10207800E31FF6F7E38106D88DB7E31ED3FCE378B8
:10208800CBFD2A8761BD93F7F8009146E38BD7D63D
:1020980093B7C8FF9386480093C717008D823E9771
:1020A8009DB381468547E34CA0FEFD58E31E05D04D
:1020B800930410C085471385E441B316A70033D6AF
:1020C800F8003395A800D18E3335A000C98E13F6D9
:1020D80076003357F70001CE93F7F6001146638870
:1020E800C70093874600B3B6D7003697BE869317C6
:1020F800870063D80704054681470147C1BE368774
:10210800C9B3B28749BBFD46E3D7F6FA0556098E2F
:10211800930600023356C7006388D7009387E443C9
:10212800B317F700B3E8F800B3361001D18E13F6F1
:102138007600814701CE93F7F60011460147E392F6
:10214800C7FA931797001316D701B18313D7360030
:10215800518F0146A5BEE370CBF0729B3335CB019E
:102168001A957917AA965DBBAE88D5BBAE8605B51C
:1021780093171E0033BEC70172931A96F9183E8E44
:10218800E317F6E7E309DEC693E81800ADB1BE88A9
:10219800E30AF6FFA9BD36881306F07F8147014799
:1021A80035B6E367DEFCBE88E310DEFEA9B13971FF
:1021B8004AD813D945014ED652D456D29399C50060
:1021C80006DE22DC26DA5AD05ECE1379F97F2A8A17
:1021D80093D9C90093DAF501630D090E9307F07FCF
:1021E8006304F9181354D5018E09B369340137040F
:1021F800800033E4890093143500130919C081491C
:10220800814B13D74601139AC6001377F77FB2851F
:10221800135ACA0013DBF601630A07109307F07F0D
:102228006303F7049357D6010E0A33EA47011307ED
:1022380017C0B7078000B367FA00931536003A99BC
:10224800814833C76A01BD463A851308190063E619
:102258003617170600001306A67B8A09B29983A6CB
:102268000900B2968286B367CA001309F97F63979B
:10227800071293E9290081458948E1B70147930787
:10228800F07F3704080081443204D20731807E078A
:102298005D8C598CA285F250625426854259D254DD
:1022A800B259225A925A025BF24B216182805A85B6
:1022B8003E84AE84C68B8947638BFB0E8D47E38FC4
:1022C800FBFA85472A87639AFB3881470144814492
:1022D80065BF33E4A90055CC36C632C46389092AE0
:1022E8004E85A1212246B246AA87130755FF754499
:1022F800938487FF198CB399990033548A00336407
:102308003401B3149A0013D746011309D0C0139AA5
:10231800C6001377F77F3309F9408149814BB285AD
:10232800135ACA0013DBF601E31A07EEB367CA00B3
:10233800A9C7630E0A22528532C4C52E22462A87AF
:10234800930655FFF547930587FF958F331ABA0013
:10235800B357F600B3E74701B315B6003309E940B0
:102368001309D9C08148F1BD33E4A90001ECA149A2
:1023780081441309F07F894B69B593E919008145B8
:102388008548C1B54E84AA84B1491309F07F8D4BA5
:102398008DBD914981440149854BA5B593E9390023
:1023A800D2878D4879BD89475685E399FBF02A87FE
:1023B8009307F07F01448144C1BDC16E1386FEFFBF
:1023C80093D6040113DE0501F18CF18D3386950255
:1023D8003383B6029358060133059E021A95AA98CC
:1023E800B382C60363F36800F692C16F1383FFFFDD
:1023F80033F5670093D30701B3F76800C207337357
:1024080066003E933306950293D80801B387A60267
:10241800135F0601B3849302BE94FA94B38E7602D6
:1024280063F3F400FE9E416A9307FAFF935F040189
:10243800B376F400B3F9F4007D8EC1803384D502FD
:10244800C209338FD401B299CE98B307DE02935EE6
:102458000401B385BF02AE97BE9E330EFE0363F33D
:10246800BE00529EC1679385F7FF33F6BE006D8CA0
:102478004206229693DE0E01B305D502769E338579
:10248800AF0213D40501B386D302AA96A296B38FDE
:10249800F30363F3A600BE9F41657D15B3F7A6005D
:1024A800C2076D8DAA97B3855800B3B93501FA975D
:1024B800B2953384370133B6C500B30EC4013385F2
:1024C800CE0033343401B3B7E701C18F33BECE0138
:1024D80013D406013336C5003E943366CE00939478
:1024E800950032947E94B3E46400260493567501F3
:1024F800B3349000DD8193179500CD8C558CDD8C1D
:102508009317740063DB070093D71400858893162C
:10251800F401DD8CD58C058042899307F93F635718
:10252800F00893F6740081CE93F6F40011466388A0
:10253800C60093864400B3B496002694B6849316D6
:10254800740063D80600B70700FFFD177D8C93075A
:1025580009409306E07F63CDF60E93D634009314BA
:10256800D4012604D58C318093F7F77F31BB3285AF
:1025780032C4652A93065501F1471307050222461E
:10258800E3D2D7DC6115B317A6008145C1BB712A18
:1025980013075501F145930705022246B246E3D8D1
:1025A800E5D461153314AA008144B1BB85469D8EDC
:1025B800B1E71309E941B3972401B3D4D40033191F
:1025C8002401B337F000B3649900DD8C93F77400ED
:1025D800B356D40081CF93F7F40011466388C7003F
:1025E80093874400B3B49700A696BE849397860059
:1025F80063D8070485470144814479B113068003F1
:10260800E345D6CC7D46E356D6FA0556B307F640E1
:10261800930500023356F4006387B6001309E943B3
:10262800B3172401DD8CB3349000D18C93F6740079
:10263800014499CA93F7F40011468146E392C7FA18
:10264800139496003180F6068D80D58C81472DB97C
:102658009307F07F0144814405B942897DBD93D732
:102668004501B70610001387F6FF93F7F77F1306A7
:10267800E03F2A886D8F0145FD816354F60099C1BA
:10268800828082801306E0417D55E34BF6FE1305F8
:1026980030431D8D7D46558F634AA6009387D7BE6C
:1026A8003317F7003355A800598D82801305304140
:1026B800B307F5403355F7008280411106C622C49E
:1026C80026C205CD9357F541B3C4A7009D8C2A8433
:1026D8002685A1289306E041898EA9477D8093F637
:1026E800F67F63CDA7022D47098FB3D7E4005505C0
:1026F800B207B394A400B18329A00144814681475D
:102708008144B207D206B1837E04D58FC18FB2400F
:1027180022442685BE859244410182805515B3978F
:10272800A400B207B1838144E9BFC167637EF502A3
:102738009307F00F1307000263ECA7009707000048
:1027480093870731AA9703C507003305A7408280FE
:102758002181970700009387A72FAA9703C5070031
:1027680061473305A7408280B7070001636EF50013
:102778006181970700009387A72DAA9703C50700D3
:1027880021473305A740828041819707000093873E
:10279800272CAA9703C5070041473305A740828025
:1027A800B3C7A5008D8B3307C50081E78D4763EE5E
:1027B800C700AA876370E50A83C6050085078505F3
:1027C800A38FD7FEE3EAE7FE828093763500AA87D7
:1027D80091CA83C6050085078505A38FD7FE93F6A2
:1027E8003700FDB79376C7FF138606FE63F0C7066A
:1027F80083A3050083A2450083AF850003AFC5000E
:1028080083AE050103AE450103A3850183A8C50175
:102818009385450223A0770003A8C5FF23A257008C
:1028280023A4F70123A6E70123A8D70123AAC701F8
:1028380023AC670023AE17019387470223AE07FF37
:1028480075B790419107910523AEC7FEE3EBD7FE1C
:10285800E3E4E7F682800347050083C7050001E744
:1028680091C301458280814701A88347150013075A
:102878001500E5DB81473A853387F50003470700F4
:1028880075D3B306F50083C60600E390E6FE850718
:102898002A87D5B74350550052414D00000000002B
:1028A8009A9999999999A93F9A9999999999E93FE2
:1028B800333333333333C33F6666666666660A402E
:1028C8000000000000005940B2E6FFFF1EE5FFFFD0
:1028D800E8E6FFFF0AE7FFFF22E7FFFF1EE5FFFF2D
:1028E8001EE5FFFF1EE5FFFF1EE5FFFF1EE5FFFFDC
:1028F8001EE5FFFF1EE5FFFF1EE5FFFF1EE5FFFFCC
:102908001EE5FFFF1EE5FFFF1EE5FFFF1EE5FFFFBB
:102918001EE5FFFF1EE5FFFF1EE5FFFF1EE5FFFFAB
:102928001EE5FFFF1EE5FFFF1EE5FFFF1EE5FFFF9B
:102938001EE5FFFF1EE5FFFF1EE5FFFF1EE5FFFF8B
:102948001EE5FFFF1EE5FFFFBEE4FFFF46E7FFFFB2
:102958005CE7FFFF72E7FFFF90E6FFFF70E7FFFF0E
:1029680078E5FFFF54E5FFFF54E5FFFF54E5FFFF5F
:1029780066E7FFFF3AE7FFFF54E5FFFF22E7FFFFA7
:1029880014E7FFFFFEE6FFFF0E0377006300680011
:102998002E0063006E0000000C0343004800350061
:1029A80037007800140332003000310037002D0062
:1029B80032002D0032003500CAE9FFFFF2E9FFFFBF
:1029C8001AEAFFFFACE9FFFF92E9FFFF74F4FFFF8B
:1029D800F8F2FFFF08F4FFFF10F4FFFF08F4FFFF11
:1029E80028F3FFFF08F4FFFF10F4FFFFF8F2FFFFE2
:1029F800F8F2FFFF28F3FFFF10F4FFFF6AF4FFFF70
:102A08006AF4FFFF6AF4FFFF28F3FFFFAEF9FFFF48
:102A1800A4F8FFFFA4F8FFFFA2F8FFFFAAF8FFFF42
:102A2800AAF8FFFF70F8FFFFA2F8FFFFAAF8FFFF60
:102A380070F8FFFFAAF8FFFFA2F8FFFF9AF9FFFF5F
:102A48009AF9FFFF9AF9FFFF70F8FFFF00010202F1
:102A5800030303030404040404040404050505052E
:102A6800050505050505050505050505060606060A
:102A780006060606060606060606060606060606EE
:102A880006060606060606060606060607070707DA
:102A980007070707070707070707070707070707BE
:102AA80007070707070707070707070707070707AE
:102AB800070707070707070707070707070707079E
:102AC800070707070707070707070707080808088A
:102AD800080808080808080808080808080808086E
:102AE800080808080808080808080808080808085E
:102AF800080808080808080808080808080808084E
:102B0800080808080808080808080808080808083D
:102B1800080808080808080808080808080808082D
:102B2800080808080808080808080808080808081D
:102B3800080808080808080808080808080808080D
:0C2B480008080808080808080808080821
:00000001FF
