:040000006F00002667
:1000040000000000000000006F0080086F00C01EA8
:1000140000000000000000000000000000000000DC
:1000240000000000000000000000000000000000CC
:100034006F004006000000006F00E00500000000B3
:100044006F0080056F0060056F0040056F0020059C
:100054006F0000056F00E0046F0040060000000020
:100064006F0060046F0040046F0020046F00C0053F
:100074006F00E0036F00C003000000006F00600326
:100084006F0040036F0020036F0000036F00E00265
:1000940001A001A001A001A001A001A001A001A054
:1000A40001A001A001A001A001A001A001A001A044
:1000B40001A001A001A001A001A001A097D0FFDF31
:1000C400E780A03173002030373700408347474032
:1000D4009146BD8B6389D70099466394D7008347C3
:1000E40057407300203083458740171500001305DF
:1000F400258BE205E18597E0FFDFE7804028D5B74F
:10010400B7170040930670052380D704130780FABD
:100114002380E70403C6B7041376F60DA385C7044A
:10012400238007041376050225C603C6A700118A97
:100134000DE22380D7042380E70403C7A7001367D5
:1001440047002385E7009307004B01000100FD17DA
:10015400EDFFB7170040930670052380D7041307FB
:1001640080FA2380E7047D892394A700010001001D
:1001740001000100238007042380D7042380E704BF
:10018400854637270040A303D78023800704828055
:10019400137605046DDE03C6A700418A0DE22380B1
:1001A400D7042380E70403C7A70013670701238547
:1001B400E7009307007D01000100FD17EDFFB7176D
:1001C4000040930670052380D704130780FA7D89C5
:1001D4002380E704136505042394A70001000100AC
:1001E40001000100238007042380D7042380E7044F
:1001F4008D463727004041BFB717004013077005ED
:100204002380E704130780FA2380E7047D572396AD
:10021400E70203C76704136717002383E7042380F7
:10022400070401A0BD473305F50201007D1575FDE6
:100234008280411122C426C206C6AA8401446317DF
:100244009400B24022449244410182800504130583
:0A025400803E4204C13F4180DDB747
:10026000974100209381816317810020130181D978
:1002700013054000973500209385C5581736002098
:100280001306E67D63FAC5008322050023A055000E
:1002900011059105E3EAC5FE173500001305456217
:1002A00097450020938505D61386818063FAC500A3
:1002B0008322050023A0550011059105E3EAC5FE40
:1002C00013858180938501D26377B50023200500D3
:1002D0001105E36DB5FE9302800873A002309732DA
:1002E00000209382225293E21200739052309702C0
:1002F00000009382A253739012347300203033674E
:10030000B500FD530D8B79E7B7877F7F9387F7F7AC
:1003100010419441B372F6003363F600BE92B3E22B
:1003200062006397720C6318D6065041D441B372D1
:10033000F6003363F600BE92B3E262006398720A7D
:10034000631BD60410459445B372F6003363F60080
:10035000BE92B3E262006391720A631ED6025045F8
:10036000D445B372F6003363F600BE92B3E2620086
:10037000639A72086311D60210499449B372F60069
:100380003363F600BE92B3E26200639372085105D4
:10039000D105E30FD6F61317060193970601631CE8
:1003A000F7001357060193D706013305F7409375FD
:1003B000F50F91E982804183C1833305F74093753E
:1003C000F50F91E182801377F70F93F7F70F33055D
:1003D000F74082800346050083C6050005058505B4
:1003E0006313D60065FA3305D64082801105910566
:1003F000E312D6FE014582802105A105E31CD6FC4F
:10040000014582803105B105E316D6FC01458280A5
:100410004105C105E310D6FC014582803D432A8792
:100420006373C3029377F700BDEFADE5937606FFE4
:100430003D8ABA960CC34CC30CC74CC74107E36B4B
:10044000D7FE11E28280B306C3408A0697020000FD
:1004500096966780A6002307B700A306B700230679
:10046000B700A305B7002305B700A304B700230412
:10047000B700A303B7002303B700A302B70023020A
:10048000B700A301B7002301B700A300B700230002
:10049000B700828093F5F50F93968500D58D9396DE
:1004A0000501D58D61B793962700970200009696B7
:1004B0008682E78086FA9680C1171D8F3E96E37488
:1004C000C3F8A5B783C731901387018D3E97850781
:1004D0002300A70093F7F70F130710036365F700D6
:1004E000A381F1908280A3810190828083C72190B3
:1004F00003C73190630AF7021387018D3E970345C6
:10050000070003470700850793F7F70F93061003CB
:100510007D89158363E7F6002381F1901607598DD5
:10052000828023810190DDBF01470145C5BF7971FC
:100530009387818022D480434AD04ECE52CC56CA73
:100540005AC85EC606D626D211499739000093894B
:1005500029DC930A600C094A0D4B854B01ECB25023
:10056000225492540259F249624AD24A424BB24B47
:10057000456182805C400345040082975C4CAA84FC
:10058000636FF9008A07CE979C43CE9782876313E7
:10059000750148CC83576401A907231BF40023008D
:1005A0009402405065BF834704026391A71003453E
:1005B000040083478401232E44017D8913650502CD
:1005C0002300A400858B91C3F53D1C44E9DB034562
:1005D00004008297E9B7834704026393A706035791
:1005E000E40055DF8357C400A907C207C18323165F
:1005F000F400631DF70003450400834784017D89EF
:10060000136505062300A400918B75BF03572401D1
:1006100059D783574401A907C207C18363F5E7008F
:10062000231AF400ADBF0345040083478401231A55
:1006300004007D89136505022300A400C18B61B706
:10064000232E6401A9BF834704026393A7020345D5
:10065000040083478401232E24017D89136505044A
:1006600023160400231A04002300A400898BA1BFD1
:10067000232E44012DB783576401231B0400938765
:10068000B7F9C207C18363E3FA0203450400834755
:1006900084017D89136505F82300A400A18B91C313
:1006A00015351C4481C7034504008297232E04009E
:1006B000FDB5938781809843BA8791E758D123A4E9
:1006C000A180014582806384A700DC53FDB77D557E
:1006D0008280B707D0075CC59307800C2319F5000B
:1006E000FD472300050023220500232405002308DD
:1006F000050023220502232A0500230CF500230010
:100700000502232E050082807D8985476304F5025A
:1007100009C989476306F5028D476309F50201455A
:100720008280B717004003A5470A118113451500C1
:1007300005898280B717004003A5470A1581FDB7D8
:10074000B717004003A5470A3581CDB7B71700405A
:1007500003A5470A3981D9BF371700408327870A85
:10076000411106C693E707202324F70A85451305A0
:100770000010EF10805B8D4513050020EF10E05A4C
:10078000EF10007105459545EF104075B2400145E9
:1007900041016F10007301118545414506CE22CC01
:1007A00026CA4AC84EC652C456C2EF1000588545E4
:1007B00013050002EF10605785451165EF10E056F4
:1007C000854509651384C181EF1020568144228A32
:1007D000930A800297090000938949F31149228501
:1007E000CD3D3387540393F6F40122858504130429
:1007F0008402529783470700819BD58F2300F7001F
:10080000232004FE232E34FD6D35E39A24FDF240AF
:100810006244D2444249B249224A924A05618280E6
:100820009387C1808843828079711305800406D63E
:1008300026D24ECE52CC56CA5AC85EC662C466C2D2
:1008400022D44AD06AC097300020E780A00B293715
:10085000971700009387274C1745002013054594F0
:1008600023AAF1A6EF00304217350000130585AB2F
:10087000EF10B004173500001305C5ABEF10D0150D
:1008800017350000130545ACEF101015592421371A
:10089000B7E700E03707400023A0E710370700085C
:1008A00023A0E7109389C180173A0000130A8AA792
:1008B000973A0000938ACAA9173B0000130BCBA8F4
:1008C000854B094C8D4C938481D12945973000206C
:1008D000E7806016A93983A70900850723A6F18060
:1008E00031311379F50F1374090E2A8D79DC528595
:1008F000EF10A07C135659009375FD015685EF103B
:10090000C07B5A85EF10500D9377F9018DEB93075B
:100910000004631CF400984083470704F99B2300FC
:10092000F7040545EF1080684DB793070002E31AFE
:10093000F4FE98408347070493E71700CDB763950B
:100940007703930700046317F40098408347070474
:10095000F59BF1B793070002E315F4FC9840834739
:10096000070493E7270065BF639587039307000497
:100970006317F400984083470704ED9B4DB7930736
:100980000002E310F4FA98408347070493E7470016
:1009900079B7E39897F9930700046317F400984038
:1009A00083470704DD9BA5BF93070002E31BF4F612
:1009B00098408347070493E7870095B79387C1A7BB
:1009C00093060004A383D700930660F82384D7001E
:1009D000E946A384D7004947930620022380E70015
:1009E0002385D7000547930670050946A380E700D5
:1009F000A385D70005478D46414823810701A38180
:100A0000E7002382C7002386E700A3820700238331
:100A10000700A38607002387E700A387C700A388F2
:100A2000E7002388D70013059002938701A923814B
:100A3000A700130500F8A383A700130580FCA545B4
:100A40002384A70011452380B700A380C700238219
:100A5000E700A382E700A384B700A386C700A381B1
:100A6000070013061002238307002385A700A38530
:100A70000700238607002387D700A389C700238B9D
:100A8000C70013062002238CC70013063003A38C73
:100A9000C700130610F82389B700238A07019D4871
:100AA0001548A38EC700930500042946A387E700D5
:100AB0002388E700A38AE700A38BE7002382E702ED
:100AC000A38807002547238D0700A38D1701238ED8
:100AD0000701238FD700A38FB70023800702A380CD
:100AE000C70223811703A3810703A382D7022383AD
:100AF000B702A38307022384C7029387C1AB238174
:100B0000E70011472380A700A380D700A381E70057
:100B100082809387C1AC23AAF1D09387C1B823AC5C
:100B2000F1D09387C1C0411123A6F1D09387C1C8EA
:100B300006C623A8F1D0EF10803F493517350000D5
:100B4000130585A1EF10605717350000130505A2A6
:100B5000EF10A056B240172500001305E57E4101B5
:100B60006F10806781471386C1D013F7F70F636456
:100B7000A7006F10004518423E978346070085077F
:100B800093C6F6FF2300D704CDB78147138601D162
:100B900013F7F70F6364A7006F10004418423E97E5
:100BA00083460700850793C6F6FF2300D704CDB719
:100BB0008147138641D113F7F70F6364A7006F10C5
:100BC000004318423E9783460704850793C6F6FF05
:100BD0002300D708CDB7011122CC06CE26CA4AC8B9
:100BE0004EC652C4378400408344640093F4F40F2B
:100BF00093F7240063810760173500001305C5953E
:100C0000EF10A04B172500001305057DEF10E04AFB
:100C10001725000013054573EF10005C834774002F
:100C20001307000393F70703638BE70283477400FE
:100C3000114793F7F7036380E730636FF7060547C3
:100C40006380E7206389071C09476388E7200D4715
:100C5000638CE726B787004009472383E70037877F
:100C6000004083477700E207E18763D60742930796
:100C700020FC2301F702938441D19C4003C77700F5
:100C800083C667002207558F2391E1AC03C7170085
:100C90002382E1AC83C9070093F609066392063EFE
:100CA000A94663EFE63C972600009386266C0A0768
:100CB000369718433697028713072002638BE71C89
:100CC0006365F70413070002638AE708130710023D
:100CD000E392E7F81725000013050574EF10E03DD7
:100CE0001725000013054576EF10203D172500005D
:100CF00013058565EF10404E8347640293F7C70FD5
:100D000093E727002303F402B1B713073002638986
:100D1000E71E13074002E39FE7F2173500001305B3
:100D2000A583EF1080391725000013056579EF10B2
:100D3000C0381725000013052561EF10E0498347EF
:100D4000240393C707042309F4028347240393F77A
:100D5000C70F93E727002309F402EDBD83C741AC19
:100D600015476383E70619476391E70A938721AC28
:100D700003D4070013070004BE84637487001304C0
:100D80000004938741D1138981AC884342048325B1
:100D9000090041802286EF10E02683D70400937972
:100DA000F40F818F2391F1AC832709003E9423A493
:100DB00081ACB78700402380370303C7270213475E
:100DC00007042381E70279B58347340003C721ACC8
:100DD000172500001305457893F70708D98FA3015D
:100DE000F40089472301F402EF10202D83453400DD
:100DF000172500001305855FEF10202C1725000034
:100E000013058554EF10403DB1B523000402894716
:100E10002301F40281B5172500001305E573EF10D7
:100E2000C029172500001305E55DEF1000291725DF
:100E3000000013056551EF10203A8347840019BD67
:100E4000172500001305455DEF102027834584001A
:100E5000172500001305855D45B71725000013050C
:100E6000A56FEF108025172500001305255FEF10F3
:100E7000C024172500001305254DEF10E0358347EA
:100E8000740093F70704E38707DC03458400D9392E
:100E9000D1B3172500001305256CEF10002217258C
:100EA00000001305E55CEF10402117250000130535
:100EB000A549EF1060328347A40293F7C70F93E769
:100EC00027002305F40279B3172500001305C56830
:100ED000EF10A01E172500001305C55AEF10E01DE6
:100EE0001725000013054546EF10002F83477400B7
:100EF00093F70704E38007D603458400793199BB53
:100F00001725000013054565EF10201B172500006D
:100F100013058558EF10601A172500001305C54208
:100F2000EF10802B8347E40293F7C70F93E7270066
:100F30002307F40205B3172500001305E561EF1040
:100F4000C0171725000013056556EF100017172569
:100F500000001305653FEF1020288347740093F7C6
:100F60000704E38907CE8347240393C707082309AF
:100F7000F402034584002D39F1B903C7270083C764
:100F800037008946A207D98F13D787006306D70693
:100F900063EBE60285476309F70417250000130594
:100FA0006553EF1080119C40172500001305C553B1
:100FB00083C53700EF106010172500001305C538F2
:100FC000EF10802199A80D46630FC70293072002F6
:100FD000E315F7FC973700209387C70223A4F1ACF1
:100FE000014493073003B1A09387C1A723A4F1ACB8
:100FF00083C7C1A7014435A8938701A923A4F1ACF5
:1010000083C721A9C5BF93F7F70F0546638BC700B8
:10101000CDCF638AD7086381E70A1304F00F8147B5
:1010200009A8972700009387273723A4F1AC014430
:10103000B947C207C18303D721AC63F4E70023910A
:10104000F1AC938721AC03D607009307000463F447
:10105000C70013060004138A81AC13190601832507
:101060000A008840135909014A86EF00B079032627
:101070000A004A9623A4C1AC9307F00F6312F40848
:10108000B78700401307F0FC2381E702B7870040D1
:1010900009472383E700F2406244D2444249B249FF
:1010A000224A05618280972700009387E72F23A4B7
:1010B000F1AC0144F147B5BF972700009387873013
:1010C00023A4F1AC0144D147ADB79387C1AB23A4AE
:1010D000F1AC83C7C1AB39BF83C727002391F1AC03
:1010E00005A003C701AC2380E70003D721AC8547E7
:1010F00063F8E7008547DDB783C727002380F1AC9D
:10110000E20993D98941814663D2090283D721AC90
:10111000930600043E8763F4F600130700044207B9
:101120004183998F9376F70F2391F1AC3784004078
:101130002300D402930700FC2301F40217250000CA
:1011400013058541EF0070778345040217250000E1
:101150001305053BEF007076172500001305C51E2B
:10116000EF10800725B713F7F9018946E31AD7F086
:1011700083C747006381E704636CF7000547E39189
:10118000E7F0378700408347670293F7370799A056
:10119000130710086388E70213072008E392E7EEBD
:1011A000378700408347A70293F7C70B93E72700D1
:1011B0002305F702B1B7378700408347A70293F7AB
:1011C0003707FDB7378700408347670293F7C70BA0
:1011D00093E727002303F70225B72380070031B7E1
:1011E000238007009C40A380070003D721AC8947D8
:1011F000E3F8E7F0E5B593F71400B9C3172500004D
:1012000013058535EF00706B172500001305C530F9
:10121000EF00B06A1725000013050513EF00D07B1F
:101220008947A30104002301F402C9472303F40200
:101230002305F4022307F40285472303F400A1BD2C
:1012400093F744009DC7172500001305E530EF0014
:10125000D066172500001305652DEF0010661725D1
:1012600000001305650EEF00307783475400914767
:10127000E9B7172500001305E525EF0010641725D1
:1012800000001305252CEF005063172500001305FF
:10129000A50BEF00707423039400F5BB81473387DF
:1012A000F500830607003307F50089E623000700F1
:1012B0003E8582808507C2072300D700C183C5B75A
:1012C0008347A516F19B93E717002305F516828047
:1012D0002A8319C12E85028382809387C18B9386CE
:1012E000018D884309C50347A516118B09E79107AE
:1012F000E399D7FE01458280832705178DCF4111E1
:1013000022C426C24AC006C62E89AA840144931765
:1013100004010504330789000305F7FFC18301E9D0
:10132000B2402244924402493E854101828083A713
:1013300004178297E9BF81473E8582808357650302
:10134000E1CB03578503411122C406C626C22A8475
:101350006397E702FD17139707014183231BE502FB
:10136000231CF5023304E500230204002244B240AA
:101370009244972500009385E5204101B5BF25EFF4
:10138000B24022449244410182803386E600229694
:10139000030546008506C206A301A600C186E3C672
:1013A000B6FEFD17C207C1837D17231BF402231C61
:1013B000E402A2972382070003250417A145093FF1
:1013C00083148403835764030325041763C9F40259
:1013D00093050002F53D8354640383578403850419
:1013E0009D8CC204C184E35D90F803250417A145D8
:1013F000FD14F93DFDB78146B385E7404DB7B3070E
:101400009400838547008504C204D935C1845DBF3B
:10141000828001114AC80329C515920522CC2E9954
:101420008325090026CA06CE4EC6AA845944E9354A
:10143000098C4204418463438000114497290000D1
:1014400093894944CE8526857D147D351315040185
:10145000418113140501418475F59725000093859A
:1014600065192685513D832589002685713562449D
:10147000F2404249B2492685D2449725000093851F
:10148000A517056195BD8347A516411122C406C65F
:10149000C19B2305F5161387C18B972700009387FF
:1014A000A71B1CC12A84231B0502231C0502231B26
:1014B0000514232C05148147BA8615460C4395E97B
:1014C0008A07B69780C3972500009385A5192285C2
:1014D00025350C4022850D35972700009387870B13
:1014E000232EF4148D472310F416B24022444101F8
:1014F000828085071107E393C7FCF1B7011126CA63
:1015000056C206CE22CC4AC84EC652C4AA84AE8A5F
:10151000E93319CD85472A84639CF402972500009E
:101520009385C50FD13B81448357041663EBF400C8
:10153000F2406244D2444249B249224A924A056189
:101540008280A68585042285C204E135C180E9BF79
:101550008947E39FF4FC032AC51583590516814486
:1015600063E73401972500009385C50DB1A8139951
:10157000440052998325090003A54A00EFE03FD8B3
:1015800031ED972500009385A50A2285B533832583
:10159000090022859533972500009385650A2285E9
:1015A000A13B832589002285813B972500009385F7
:1015B000A504228591338325C900BDD922852D3B01
:1015C000972500009385450322856244F240D2446A
:1015D0004249B249224A924A056139BB850493F4D3
:1015E000F40FBDBF83576503011122CC06CE26CA76
:1015F0004AC84EC652C456C25AC02A8481EF0C4112
:101600006244F240D2444249B249224A924A024BD1
:101610000561DDB11309450013871700231BE5029F
:10162000CA972380070083148515231D051413050D
:101630002003FD14B384A402CA851385C405229532
:10164000EFE0FFCB0DCD1385E408CA852295B931B3
:1016500011C5835784158507231CF414835764151B
:1016600015478507C207C1836365F704231BF4147C
:1016700003178415914763D4E700231C04148147A2
:101680008545014681440545130820029308C0059D
:1016900013030002254E930EC0020357640363ED4B
:1016A000E700231B0402231C0402A5E40C4022854E
:1016B00081BF231BE4146DBF3307F90083060700C5
:1016C00019E6638466046382C6056380D60595CEF9
:1016D000639A060113461600230007008507C20718
:1016E000C18365BF639AA50093861400B1048A0480
:1016F000A294D8C493F4F60F030707008145E31FB3
:1017000017FD8507C207C183D1BF230007008545A8
:10171000F1B797250000938525EE2285F13E032A37
:10172000C403972500009385E5075285EFE03FBD90
:1017300019CD032BC415835A041601496369590353
:1017400097250000938505F022857D3685B7834770
:10175000A4169305C403268593E747002305F416D2
:10176000713B8347A416ED9B2305F41681B79319AB
:101770004900DA9983A509005285EFE05FB811EDC1
:101780008347A4169305C403268593E747002305E2
:10179000F41683A749008297E9B705091379F90F71
:1017A00071BF411106C6153E01C9B2409725000020
:1017B000938585DD410189B6B240410182800111E6
:1017C00022CC835785030354650326CA06CE4AC834
:1017D0004EC6AA841D8C420441846346800203D411
:1017E000640341697D19972900009389A9D97D1463
:1017F0004204418063102403F2406244D2444249CF
:10180000B2490561828003A50417930500027D1487
:10181000C134D1B7CE852685C534D1BF411122C48C
:1018200006C62A8426C2613F8317A41591EB231BA9
:101830000402231C0402B2402244924441018280EB
:10184000831584159304440026859505BE95954718
:10185000B3E5F50293072003B385F5029385C5052B
:10186000A295EFF0BFA3231BA40271D5231CA402F1
:1018700022852244B240A68592444101B5BC7971CB
:1018800026D28354650322D406D64AD04ECE52CCFB
:1018900056CA5AC85EC662C466C22A846386041ADF
:1018A000AA94032AC5158149238204000149814471
:1018B000930A2003130B4500854B172C0000130CD3
:1018C000ACD38357041663C1F90E6387041A8547A6
:1018D0006394F4002285E535931749003E9A8325E9
:1018E0000A00930944004E85EFF05F9B231BA4027E
:1018F000854763FB9700CA852285213E0C402285DF
:10190000EFF09F9F231B540383576403CE85330757
:10191000F40023020700231CF4022285EFF0DF9D70
:10192000EFE01FF0630A051485476397F4148347BB
:10193000A416A18B63820714EFE09FEE8327441760
:101940001D8D9307700C63E9A71222858D3D8317C7
:1019500064033307F4007D1763D807109304440031
:1019600097250000938505E42685EFF03F939307C4
:1019700000022304F400835764032285B2509507C4
:10198000C207C183231BF402231CF4022254025910
:10199000F249624AD24A424BB24B224C924CA68543
:1019A000925445616FF05F95939C4900D29C03A6C9
:1019B0000C0081473307FB008306070081CA330709
:1019C000F6000307070019C36388E606035764039C
:1019D000631FF704B1C463967401E2852285EFF0BA
:1019E000BF91CA8522851209EFF0BFA252998325C3
:1019F000090003A60C0081473387F5008306070022
:101A000081CA3307F6000307070019C3638AE60299
:101A1000568763F357013E87931A070193DA0A0149
:101A2000850413990901C20413590901C18085096C
:101A3000C20993D9094171B58507C207C1839DBF0A
:101A40008507C207C1834DBF8347A516814593E72C
:101A500047002305F516054555348347A4160C4069
:101A6000ED9B2305F41655BD83465700FD17C207AD
:101A70002305D700C187C5B5B250225492540259EC
:101A8000F249624AD24A424BB24B224C924C4561D7
:101A900082808357A51605478D8B6383E70C094722
:101AA000639CE70C411122C406C6930720042A84D4
:101AB000638BF50663CFB70093071004638FF502BD
:101AC0008347A416B240F19B2305F416224441013A
:101AD0008280930730046382F50693074004E39104
:101AE000F5FE83578503E9DF03250517A145EFF0D0
:101AF0002FFE83578403FD178DA00317A51583566A
:101B000065159307F7FF231DF5148317851563D318
:101B1000D700B687B307F04063C4E700231DF41471
:101B20002285ED3971BF8357A5158507C207C18787
:101B3000E356F0FE231D051461B783578503035751
:101B40006503E3FFE7F6AA9783854700032505179A
:101B5000EFF00FF8835784038507231CF4028DB739
:101B60008347A5161307B005F19B6394E50093E73F
:101B700027002305F516828082808347A516011170
:101B800022CC26CA06CE4AC84EC68D8B2A84AE8485
:101B9000639F071683294516014903578416634539
:101BA000E908B9EB172900001309C9A1972900001A
:101BB000938949A4631C3909A1E39DCC835764032D
:101BC000130700036360F71203578403938617001B
:101BD000C20693051700C205C181C1826395E7085B
:101BE000231BD402A2972382970003250417231CEA
:101BF000B402A685EFF0CFEDEFE09FC209C5EFE09C
:101C00003FC2232AA4168347A416DD1493B41400FC
:101C10008E04DD9BDD8C23059416F2406244D24491
:101C20004249B24905618280131739004E978346B5
:101C30000700639896005843854701C7228502979D
:101C40008547050942091359094181BF0347090026
:101C50006319970003274900854701C7228502972A
:101C60008547210981BF998FC207C1873386E70065
:101C700022967D166345F004231CB402B307E400EA
:101C800023829700231BD402A29623820600835747
:101C900064031319070113590941634AF9020359EF
:101CA000840333892741420913590941E35620F53A
:101CB00003250417A1457D19EFF08FE1EDB703452A
:101CC0004600FD17C207A302A600C1875DB7B30790
:101CD00024018385470003250417EFF06FDF130706
:101CE000190075B797250000938545912285EFF07F
:101CF000AFE00C402285EFF02FE0930544002285F1
:101D0000EFF08FDF83576403231CF402F5B55133E2
:101D1000E5B50111A307A10085451305F10006CE25
:101D2000DD22F24005618280EDA0914763EEB702AB
:101D300017270000130787AD8A05BA959C41BA970B
:101D40008287B717004003A7470B1345F5FF698F3C
:101D500023AAE70A03A7070B698F23A8E70A03A7AB
:101D6000070A798D23A0A70A8280B717004083A6AF
:101D7000470B1347F5FFF98E23AAD70A83A6070B53
:101D8000558D23A8A70A83A6070A758F23A0E70A03
:101D90008280B717004003A7470B498F23AAE70AA1
:101DA00003A7070B1345F5FF45BFB717004083A6F0
:101DB000470B1347F5FF758F23AAE70A03A7070A06
:101DC000598D4DB7B717004003A7470B498FEDB7A3
:101DD000B717004003D5870042054181937705047A
:101DE00091EB9377F5013755E801130505803345ED
:101DF000F50282809377050C130700046397E700D0
:101E00009377F50137459C1CCDB72165130505D0A7
:101E10008280B7170040130770052380E70413077B
:101E200080FA2380E70403C767041367170023833E
:101E3000E704238007048280814737370040A146AA
:101E400063C4C700328582800345B740E38EA6FE97
:101E50003385F5000345050085072304A740CDB76A
:101E6000411122C406C62A84A5372947B307E502D3
:101E7000B2408D83B3D7870222449507B3D7E702D8
:101E800037370040C207C1832316F74041018280E3
:101E9000716541111305052006C6D937B7370040D3
:101EA000130770F82381E7400D47A381E74013072C
:101EB0000004A380E74005472387E740B240410183
:101EC000828037370040834727401A0593F7F7038E
:101ED000C98F93F7F70F2301F7408280B73700408F
:101EE00003C7174019C9D98DA380B74003C707405E
:101EF000136787002380E740828093C5F5FFF98D43
:101F0000A380B7408280B73700402147B7360040F2
:101F100091E1828003C6B740E30CC7FE0505034686
:101F2000F5FFFD15C2052384C640C181D5B7B7872B
:101F30000040238007001307C0FC2386E700A38628
:101F4000E70003D741D12398E70003D781D1239A33
:101F5000E70003D7C1D0239CE70003D701D1239E1C
:101F6000E70089462381D70249472383E702238577
:101F7000E7022387E7022389D702A381070013071B
:101F800090022380E700B716004003D7A60113672D
:101F9000070C239DE6007D572383E700130710F805
:101FA000A380E7001D472381E7008280B7870040B8
:101FB0002382A70203C767021377C70F2383E702B1
:101FC0008280B78700402384A70203C7A702137744
:101FD000C70F2385E7028280B78700402386A702C8
:101FE00003C7E7021377C70F2387E7028280B7870B
:101FF00000402388A70203C727031377C70F23894D
:10200000E7028280B3C7A5008D8B3307C50081E747
:102010008D4763EEC700AA876370E50A83C6050093
:1020200085078505A38FD7FEE3EAE7FE82809376D6
:102030003500AA8791CA83C6050085078505A38F49
:10204000D7FE93F63700FDB79376C7FF138606FEDB
:1020500063F0C70683A3050083A2450083AF850014
:1020600003AFC50083AE050103AE450103A385019F
:1020700083A8C5019385450223A0770003A8C5FF67
:1020800023A2570023A4F70123A6E70123A8D70121
:1020900023AAC70123AC670023AE17019387470229
:1020A00023AE07FF75B790419107910523AEC7FE98
:1020B000E3EBD7FEE3E4E7F6828039713EDA2ED215
:1020C00032D436D63AD842DC46DE972700209387B2
:1020D000E7FC22CC804326CA06CEAA8409C41C4C45
:1020E00099E3228535230C4454102686228536C672
:1020F000EF007017F2406244D244216182800111E6
:1021000026CA4AC806CE22CC4EC652C4AA842E89FC
:1021100001C51C4D91E3ED299C4C804499E3268533
:10212000C529971700009387A771631CF402C0406C
:102130008357C400A18BB1C71C48A1C7FD59294AC8
:102140001C4483450900FD17B1E91CC463DE070682
:102150002286A94526854128FD576308F5022945B1
:1021600035A0971700009387A76F6314F40080448D
:10217000C1B7971700009387A76AE31BF4FAC0441E
:1021800045BFA2852685052255D97D55F24062447A
:10219000D2444249B249224A056182801CC40509E1
:1021A00063D70700184C63CBE700638945011C40E7
:1021B0001387170018C02380B70059B722862685D9
:1021C0001D20E31F35F7D1B71C401387170018C037
:1021D00029472380E70061B797270020938707EC02
:1021E000AA85884329BF011122CC26CA4AC806CE37
:1021F0004EC6AA842E89328401C51C4D91E309295B
:10220000971700009387C7636319F406C0401C4CFE
:102210001CC48357C400A18BC9C31C48BDCF1C4834
:1022200008409379F90F1379F90F1D8D5C486346C7
:10223000F500A2852685752C2DE51C440505FD17A6
:102240001CC41C401387170018C0238037015C484A
:102250006389A7008357C400858B81CBA947631688
:10226000F900A285268571240DEDF24062444A856D
:10227000D2444249B2490561828097170000938792
:10228000275E6314F400804459B7971700009387C2
:102290002759E31EF4F6C0449DBFA2852685212060
:1022A0003DDD7D59D9B7411197270020938707DF7E
:1022B00026C2844322C44AC006C62A892E8489C401
:1022C0009C4C99E32685A9269717000093874757CA
:1022D000631CF402C0400317C40093170701C183B5
:1022E00093F68700B5EE93F607019DEEA5472320F0
:1022F000F900136707042316E4007D55B240224419
:102300009244024941018280971700009387475504
:102310006314F4008044C1B79717000093874750B7
:10232000E31BF4FAC04445BF918B8DC74C5889C953
:10233000930744046384F5004A859123232A040209
:102340008357C4002322040093F7B7FD2316F4003B
:102350001C481CC08357C40093E787002316F40071
:102360001C4881EF8357C4001307002093F7072808
:102370006385E700A2854A85A5218357C40013F72A
:10238000170005C75C4823240400B307F0401CCCA9
:102390001C480145A5F78317C40013F7070839DF68
:1023A00093E707042316F40089BF898B014791E363
:1023B000584818C4F1BF83D7C500011122CC26CAE2
:1023C00006CE4AC84EC613F78700AA842E8471EF42
:1023D000D841634DE000B841634AE0000145F24056
:1023E0006244D2444249B2490561828058547DD743
:1023F00003A904009396370123A0040063DD0606B9
:1024000070488357C400918B99C75C401D8E5C58FF
:1024100099C33C401D8E5C540C50814626858297A2
:10242000FD570357C400631DF5009440F54763E86A
:10243000D706B70740208507B3D7D700858BA5C33C
:102440001C48232204001CC09317370163D80700DF
:10245000FD576314F5009C4091E368C84C5823A0D5
:102460002401ADDD930744046384F500268501292A
:10247000232A0402A5B70C500146854626850297FB
:10248000FD572A86E31FF5F69C40A5DF7547638557
:10249000E70059476394E70423A0240181B7136739
:1024A00007042316E4007D551DBF83A90501E387BA
:1024B00009F203A905008D8B23A0350133093941A9
:1024C000014791E3D84918C4E35A20F11C540C5039
:1024D000CA864E86268582976349A0008357C4002A
:1024E00093E707042316F4007DBFAA993309A94096
:1024F000E1BF9C49B9CF011122CC06CE2A8411C577
:102500001C4D81E72EC62922B245971700009387FC
:102510002733639BF5004C408397C50095C7228500
:102520006244F240056141BD97170000938747332D
:102530006394F5000C44CDB7971700009387472E9E
:10254000E39CF5FC4C44C9BFF2406244014505617F
:10255000828001458280411122C406C62A84231646
:10256000B5002317C50023200500232205002324DE
:1025700005002322050623280500232A0500232C15
:102580000500214681451305C505EFD03FE99717A2
:102590000000938787B45CD0971700009387E7B655
:1025A0001CD497170000938727BB5CD497170000B3
:1025B0009387E7BD00D01CD8B240224441018280FD
:1025C00097050000938525F389AA411126C21306B9
:1025D00080069384F5FFB384C4024AC02E8922C4C6
:1025E00006C69385440781262A8401CD2320050051
:1025F00023222501310508C4138684068145EFD0C6
:10260000FFE12285B2402244924402494101828086
:102610001C4DBDE3411106C622C4970700009387F5
:1026200067FA1CD597170000938747299C432324FA
:10263000050423260504232805046314F5008547B3
:102640001CCD2A841D2848C02285052808C422855F
:102650002D2048C4484001469145F53D08440546B3
:10266000A545D53D48440946C945F53585471CCCA7
:10267000B2402244410182808280411197170000BC
:102680009387C72326C284434AC006C69C4C22C4F3
:102690002A8999E32685AD3F938484048044DC40F5
:1026A000FD1763D607009C40B9CF8440C5BF031710
:1026B000C40039E7C17785072322040623200400DC
:1026C00023220400232404005CC423280400232ABA
:1026D0000400232C0400214681451305C405EFD0D6
:1026E000FFD3232A0402232C0402232404042326D8
:1026F00004042285B240224492440249410182806E
:102700001304840671BF91454A85C13588C051FDC7
:10271000B1472320F9000144E9BF797122D44AD09E
:1027200052CC56CA5AC85EC606D626D24ECE2A8A81
:10273000AE8A130485040149054BFD5B09ECB250D8
:1027400022544A8592540259F249624AD24A424B73
:10275000B24B45618280044483294400FD1963D44F
:1027600009000040E1BF83D7C400637BFB0083976F
:10277000E40063877701A6855285829A3369A900B0
:1027800093848406E1BF1971A6DAAE848395E500CF
:10279000A2DC86DE328463DC050083D7C40023A07C
:1027A000060093F7070885E7930700401DA030084F
:1027B00036C6EF005023B246E34105FE7247BD67BF
:1027C000F98F7977BA9793B717009CC2F1BF930737
:1027D00000041CC0F6506654D6540145096182803D
:1027E00083D7C500011122CC06CE26CA4AC8898BE0
:1027F0002E8489CF930774041CC01CC885475CC80D
:10280000F2406244D2444249056182807400300043
:10281000AA84953FA2452A892685312201ED831796
:10282000C40013F7072069FFF19B93E727002316E5
:10283000F400C9B7970700009387C7D89CD4835783
:10284000C40008C008C893E707082316F400A2478D
:102850005CC8B24791CF8315E4002685EF00501B7A
:1028600001C98357C400F19B93E717002316F400B6
:102870008357C4003369F9002316240151B7DDC121
:1028800083A7C5FF411122C406C626C21384C5FF13
:1028900063D307003E94AA84EF00701E93870181E2
:1028A0009C4381EF2322040023A881802244B2406C
:1028B0002685924441016F00B01C637EF4001440F1
:1028C0003307D4006396E7009843DC43369718C07B
:1028D0005CC0D9BFBA87D84319C3E37DE4FE9443F3
:1028E0003386D700631F86001040B29694C33386A8
:1028F000D700E31DC7FA10435843B29694C3D8C318
:1029000075B76375C400B1479CC04DB71040B3069E
:10291000C4006316D70014435843B29614C058C07D
:10292000C0C369B78280011126CA93843500F1982B
:1029300006CE22CC4AC84EC6A104B14763F3F404C4
:10294000B14463E2B4042A89EF00701393870181D4
:1029500098433A8439E0938741819C4391E78145CC
:102960004A85B12723AAA180A6854A858927FD59D2
:1029700063193507B1472320F9004A85EF0050104D
:1029800029A0E3D004FCB1471CC10145F2406244D8
:10299000D2444249B249056182801C40858F63CF91
:1029A0000702AD4663F6F6001CC03E9404C031A099
:1029B0005C406313870223A8F1804A85EF00500C26
:1029C0001305B4009307440061993307F5405DDFB8
:1029D0003A94898F1CC05DBF5CC3C5B72287404055
:1029E00095BF130435007198E30285FCB305A4403C
:1029F0004A85752DE31C35FBB5BF1C46FD171CC66B
:102A000063DA0700184E63C5E700A9476394F50031
:102A10006FF06FFD1C422E851387170018C22380AC
:102A2000B7008280011122CC26CA4AC84EC652C4C1
:102A300006CE2A89AE893284B304D6007D5A631447
:102A40009400014509A8834504004E864A857537E0
:102A50000504E31645FFF2406244D2444249B249BC
:102A6000224A05618280357122CD26CB4AC94EC7E4
:102A700006CF52C556C35AC1DEDEE2DCE6DAAA89C9
:102A8000AE843289368409C51C4D99E3EFF05FB8F6
:102A9000971700009387C7DA639BF40C83A449005F
:102AA00083D7C400A18BF5C79C48E5C793070002F4
:102AB000A304F1029307000302D22305F10222C608
:102AC000930B5002971A0000938A8ADB054C294B1E
:102AD0004A848347040099C36390770FB30C244161
:102AE000638D0C00E6864A86A6854E85253FFD57F8
:102AF0006306F51E9256E69636D283470400638F2E
:102B0000071CFD571309140002C802CE3ECA02CCAE
:102B1000A309010482D483450900154656859927E7
:102B200013041900C24759E913F7070109C713072E
:102B30000002A309E10413F7870009C71307B002D5
:102B4000A309E104834609001307A0026380E60895
:102B5000F2474A8481462546034704009305140042
:102B6000130707FD6379E60AB5CA3ECE85A8971715
:102B700000009387E7CE6395F40083A489000DB726
:102B8000971700009387C7C9E39CF4F083A4C9009A
:102B900001BFA6854E85EFF00FF109D97D55FA40AA
:102BA0006A44DA444A49BA492A4A9A4A0A4BF65BC5
:102BB000665CD65C0D618280050421BF33055541FA
:102BC0003315AC00C98F3EC82289B1B7324793068E
:102BD0004700184336C6634907023ACE034704004C
:102BE0009307E002631FF704034714009307A00252
:102BF000631BF702B2470904138747009C433AC698
:102C000063C107023ECA35A83307E04093E72700B7
:102C10003ACE3EC8E1B7B387670385462E84BA979C
:102C200025BFFD57C5B7050402CA81468147254621
:102C30000347040093051400130707FD6376E606B7
:102C4000F1F2834504000D46171500001305C5C3B6
:102C5000112D11CD97170000938707C31D8D930782
:102C60000004B397A700424505045D8D2AC883453B
:102C70000400194617150000130545C11309140077
:102C80002304B102C5233DC197D7FFFF9387873740
:102C900095E74247B2471377071009CF91073EC621
:102CA0009257D2973ED22DB5B387670385462E84BF
:102CB000BA97BDBF9D07E19BA107D5B778009706DE
:102CC0000000938666D626860C084E859700000085
:102CD000E7000000FD572A8AE314F5FC83D7C400FF
:102CE00093F70704E39C07EA125555BD7800970651
:102CF0000000938666D326860C084E85012AD9BF2C
:102D0000797156CA9C49BA8A984522D426D24ECEA9
:102D100052CC06D64AD05AC85EC6AA892E84B2843E
:102D2000368A63D3E700BA879CC00347340419C3CB
:102D300085079CC01C4093F7070281C79C40890708
:102D40009CC00329040013796900631A0900130B5E
:102D50009401FD5B5C449840998F634CF9041C40DE
:102D60008346340493F70702B336D000A5EB13066D
:102D70003404D2854E85829AFD576303F5041C40C6
:102D800011469840998B544481446397C700B3849B
:102D9000E64063D3040081441C4418486354F700A0
:102DA000998FBE94014969047D5B639824050145B0
:102DB00009A885465A86D2854E85829A631E75017A
:102DC0007D55B250225492540259F249624AD24A75
:102DD000424BB24B456182800509ADBF3307D40039
:102DE00013060003A301C704034754049387160086
:102DF000A2978906A381E7049DBF85462286D285D6
:102E00004E85829AE30E65FB050945B7797122D498
:102E100026D24AD04ECE06D652CC56CA5AC8B68909
:102E200083C685019307E0063289AA842E8413861F
:102E300035046380F61E63E2D7069307300663828B
:102E4000F60A63EDD700638A061E93078005638642
:102E5000F616930A24042301D40469A893074006B4
:102E60006386F60093079006E395F6FE1C40084340
:102E700093F6070893054500C1C21C410CC363D8F3
:102E800007001307D002B307F040A301E40497162C
:102E90000000938626A0294765A093073007638228
:102EA000F61A63EFD7009307F006638FF6049307D3
:102EB0000007E390F6FA9C4193E707029CC109A83A
:102EC000930750076382F60493078007E393F6F8AD
:102ED00093078007A302F404971600009386C69C0C
:102EE000DDA01C43938A2504938647009C4314C3AA
:102EF0002381F5048547ADA293F607041C410CC35A
:102F0000BDDEC207C187A5BF0C401C4313F80508EE
:102F1000138547006305080008C39C4339A093F557
:102F2000050408C3FDD983D707001307F006638A99
:102F3000E60C971600009386E6952947A301040442
:102F40004C400CC463C5050008406D9908C099E366
:102F5000B28A91CDB28AB3F5E702FD1AB69583C560
:102F600005002380BA00B3D5E70263F2E70AA14760
:102F7000631EF7001C40858B91CB58401C4863C7EB
:102F8000E70093070003A38FFAFEFD1A33065641AC
:102F900010C84E87CA867000A285268595337D5A53
:102FA0006314450D7D55B250225492540259F24992
:102FB000624AD24A424B45618280A382D504971669
:102FC00000009386268D0C40084313F805081C4129
:102FD00011056300080208C313F7150001C793E544
:102FE00005020CC04147B9FB0C4093F5F5FD0CC040
:102FF000B1B713F8050408C3E30008FEC207C18394
:10300000E1BF971600009386E688214705BFAE878B
:1030100099B794411C43CC4913F80608138547001F
:103020006306080008C39C438CC301A808C393F639
:1030300006049C43F5DA2390B70023280400B28AE3
:1030400089BF1C43D04181459386470014C383AA9E
:1030500007005685012C01C53305554148C05C4029
:103060001CC8A301040435B714485686CA852685B2
:103070008299E30945F31C40898B8DE7B2474844A8
:10308000E353F5F23E8505B785465686CA85268503
:103090008299E30965F1050A5C443247998FE3455B
:1030A000FAFEE9BF014A930A94017D5BF5B741112D
:1030B00022C42A842E8523AE01D006C63D24FD57A6
:1030C0006317F5009387C1D19C4391C31CC0B240E4
:1030D000224441018280411122C42E848395E5005F
:1030E00006C64522634905007C48AA977CC8B240C1
:1030F0002244410182808357C4007D777D17F98F78
:103100002316F400EDB783D7C500011122CC26CADF
:103110004AC84EC606CE93F70710AA842E84328979
:10312000B68991C78395E5008946014631228357C8
:10313000C4007D777D17F98F2316F4008315E40012
:103140006244F240CE864A86B24942492685D2443C
:1031500005613DA8411122C42E848395E50006C671
:10316000E128FD570357C400631BF500FD77FD17E9
:10317000F98F2316F400B240224441018280856712
:10318000D98F2316F40068C8FDB78395E50005A81C
:10319000411122C42A842E85B285368623AE01D001
:1031A00006C6EFE07FC9FD576317F5009387C1D1CD
:1031B0009C4391C31CC0B240224441018280411112
:1031C00022C42A842E8523AE01D006C6CD20FD5709
:1031D0006317F5009387C1D19C4391C31CC0B240D3
:1031E000224441018280411122C42A842E85B28565
:1031F00023AE01D006C6D120FD576317F500938793
:10320000C1D19C4391C31CC0B24022444101828081
:10321000411122C42A842E8523AE01D006C6652022
:10322000FD576317F5009387C1D19C4391C31CC020
:10323000B240224441018280411122C42A842E8559
:10324000B285368623AE01D006C66120FD576317CE
:10325000F5009387C1D19C4391C31CC0B240224466
:103260004101828093F5F50F2A966314C50001454C
:10327000828083470500E38DB7FE0505FDB7828098
:103280008280411122C42A842E85B285368623AEDF
:1032900001D006C6A920FD576317F5009387C1D159
:1032A0009C4391C31CC0B2402244410182809307D9
:1032B000800523AEF1D07D5582809307800523AE33
:1032C000F1D07D5582809307800523AEF1D0014572
:1032D00082809307800523AEF1D07D5582809307CD
:1032E000800523AEF1D07D558280938781819C43F8
:1032F00091C73E9523ACA1803E858280938701D201
:103300003E9523ACA1803E858280000082D2FFFFE3
:103310009AD2FFFFCAD2FFFF3AD3FFFF6AD3FFFF63
:103320001B5B306D5B442F6D61696E5D200000009A
:1033300073797374656D20696E6974202E2E2E2E3C
:10334000000000001B5B306D0D000000655F6B65C9
:1033500079206964203D20256420737461746520A0
:103360003D2025640000000078DEFFFFFEDDFFFF4A
:1033700018DDFFFF18DDFFFF18DDFFFF70DDFFFF29
:1033800012DCFFFF18DDFFFF7ADDFFFF90DDFFFF9E
:1033900072DEFFFF0E0367006800740065006300C3
:1033A000680000001C037700770077002E0067009C
:1033B000680074006500630068002E0063006E0002
:1033C000140332003000310037002D0032002D0090
:1033D000320035007472616E7366657220696E74B6
:1033E0006572727570742E005553425F5345545F79
:1033F00041444452455353202D3E20256420000073
:10340000656E64706F696E7430206F7574202D3E28
:10341000200000001B5B33326D5B492F5553422F58
:103420004D4F5553455D2000656E64706F696E7435
:1034300031206F7574202D3E206C656E203D202557
:1034400064000000656E64706F696E743120696E8F
:10345000202D3E2000000000656E64706F696E7460
:1034600032206F7574202D3E20000000656E647060
:103470006F696E743220696E202D3E2000000000BE
:10348000656E64706F696E7433206F7574202D3EA5
:1034900020000000656E64706F696E743320696E81
:1034A000202D3E2000000000656E64706F696E7410
:1034B00034206F7574202D3E20000000656E64700E
:1034C0006F696E743420696E202D3E20000000006C
:1034D0001B5B33316D5B452F5553422F4D4F555379
:1034E000455D20006F746865727320646573637254
:1034F0006970746F722E2025640000007365747506
:103500007020706B672073656E64206C656E203D63
:10351000202564000D0A726573657420696E7465F8
:1035200072727570742E00000D0A73757370656E7B
:103530006420696E746572727570742E00000000EC
:10354000756E6B6E6F7720696E74657272757074CC
:103550002E0000001B5B306D5B442F5553422F4DF6
:103560004F5553455D2000005553422064657669F0
:10357000636520496E697420646F6E652E000000DB
:10358000082008001B5B324A1B5B3148000000002A
:10359000A0370000FC14000098370000A837000096
:1035A000D4370000A2170000D83700000000000048
:1035B000EC370000281D0000F43700000000000078
:1035C0000A000000E41500000D000000E4150000F2
:1035D000090000007E180000080000003C130000F5
:1035E0007F0000003C1300001B000000C012000020
:1035F0002D2D00000D0A00000D0A5761726E6967DB
:103600003A20436F6D6D616E6420697320746F6F33
:10361000206C6F6E670D0A000D0A434F4D4D414EF1
:1036200044204C4953543A0D0A0D0A00636F6D6DE6
:10363000616E642068656C70202D2D003A0D0A00C3
:10364000436F6D6D616E64206E6F7420666F756E72
:10365000640D0A000D0A43483537333E3E00000032
:103660000D0A0D0A2B3D3D3D3D3D3D3D3D3D3D3D62
:103670003D3D3D3D3D3D3D3D3D3D3D3D3D3D3D3D7A
:103680003D3D3D3D3D3D3D3D3D3D3D3D3D3D3D3D6A
:103690003D3D3D3D3D3D3D3D3D3D3D3D3D3D2B0D9C
:1036A0000A7C2020202020202020202020202020D4
:1036B000202028432920434F50595249474854203D
:1036C00032303139204C65747465722020202020FE
:1036D00020202020202020202020207C0D0A7C205B
:1036E00020202020202020202020202020202020DA
:1036F00020204C6574746572207368656C6C20764C
:10370000322E302E37202020202020202020202064
:1037100020202020202020207C0D0A7C202020201A
:1037200020202020202020202020204275696C6449
:103730003A204D617220323320323032312031351F
:103740003A34373A353220202020202020202020F3
:1037500020202020207C0D0A2B3D3D3D3D3D3D3D60
:103760003D3D3D3D3D3D3D3D3D3D3D3D3D3D3D3D89
:103770003D3D3D3D3D3D3D3D3D3D3D3D3D3D3D3D79
:103780003D3D3D3D3D3D3D3D3D3D3D3D3D3D3D3D69
:103790003D3D2B0D0A000000636F6D6D616E64206E
:1037A00068656C700000000068656C70205B636F7A
:1037B0006D6D616E645D202D2D73686F7720686577
:1037C0006C7020696E666F206F6620636F6D6D612F
:1037D0006E640000636C7300636C65617220636FDC
:1037E0006D6D616E64206C696E6500007265626F5C
:1037F0006F7400007265626F6F7420746865207367
:10380000797374656D0000003AE5FFFF62E5FFFF24
:103810008AE5FFFFA2E5FFFFBCE5FFFF0000000017
:103820000000000000000000000000000000000098
:103830000000000000000000000000000000000088
:103840000000000000000000000000000000000078
:103850000000000000000000000000000000000068
:103860000000000000000000000000000000000058
:10387000000000000000000000000000232D302B9D
:1038800020000000686C4C006566674546470000F4
:103890003031323334353637383941424344454686
:1038A0000000000030313233343536373839616248
:0C38B000636465660000000034400020E6
:1038BC0005010906A10105071904290915002501AF
:1038CC0075019506810075029501810105081901A4
:1038DC0029031500250175019503910075059501C6
:1038EC009101C000000000003C3800005C38000072
:1038FC001C38000000000000000000000000000068
:10390C0000000000000000000000000000000000AB
:10391C00000000000000000000000000000000009B
:10392C00000000000000000000000000000000008B
:10393C00000000000000000000000000000000007B
:10394C0000000000000000003440002000000000D7
:00000001FF
