:040000006F008025E8
:1000040000000000000000006F0080086F00401E28
:1000140000000000000000000000000000000000DC
:1000240000000000000000000000000000000000CC
:100034006F004006000000006F00E00500000000B3
:100044006F0080056F0060056F0040056F0020059C
:100054006F0000056F00E0046F0040060000000020
:100064006F0060046F0040046F00C0056F0000045F
:100074006F00E0036F00C003000000006F00600326
:100084006F0040036F0020036F0000036F00E00265
:1000940001A001A001A001A001A001A001A001A054
:1000A40001A001A001A001A001A001A001A001A044
:1000B40001A001A001A001A001A001A0E700E05A55
:1000C4007300203037370040834747009146BD8B8B
:1000D4006389D70099466394D70083475700730018
:1000E400203083458700170500001305A579E20534
:1000F400E185E700A042E5B7B71700409306700515
:100104002380D704130780FA2380E70403C6B704C7
:100114001376F60DA385C70423800704137605021E
:1001240025C603C6A700118A0DE22380D7042380C5
:10013400E70403C7A700136747002385E700930775
:10014400004B01000100FD17EDFFB71700409306B7
:1001540070052380D704130780FA2380E7047D8980
:100164002394A7000100010001000100238007047B
:100174002380D7042380E704854637270040A30360
:10018400D780238007048280137605046DDE03C6BE
:10019400A700418A0DE22380D7042380E70403C724
:1001A400A700136707012385E7009307007D01007B
:1001B4000100FD17EDFFB71700409306700523807B
:1001C400D704130780FA7D892380E70413650504A7
:1001D4002394A7000100010001000100238007040B
:1001E4002380D7042380E7048D463727004041BF8E
:1001F400B7170040130770052380E704130780FA3C
:100204002380E7047D572396E70203C76704136737
:1002140017002383E7042380070401A0BD473305A7
:10022400F50201007D1575FD8280411122C426C2AC
:1002340006C6AA84014463179400B240224492443F
:100244004101828005041305803E4204C13F418080
:04025400DDB7000012
:10025800974100209381815A17810020130101DA08
:10026800130540009735002093854559173600201F
:100278001306067E63FAC5008322050023A05500F5
:1002880011059105E3EAC5FE17150000130585D889
:1002980097450020938585D617460020130606D675
:1002A80063FAC5008322050023A0550011059105B6
:1002B800E3EAC5FE17450020130545D4938581C49C
:1002C8006377B500232005001105E36DB5FE9302A1
:1002D800800873A00230973200209382225293E262
:1002E8001200739052309702000093826209739053
:1002F800123473002030411106C622C41385419080
:1003080003441508834705081D8C1374F40711CCA2
:1003180097450020938585CE2286792AA2851745A0
:1003280000201305A5CDEF00B02D174700201307B7
:10033800E7D48347170803470708998F93F7F70708
:1003480095CB1307000413F4F70F6374F700130435
:100358000004938781C38C43228617450020130528
:10036800E5D193850504892A22852244B2404101BA
:100378006F007033B240224441018280411113055D
:10038800800406C697300020E780C0561D20952AB5
:10039800B7E700E03707400023A0E710370700045D
:1003A80023A0E710294597300020E780C067A137D0
:1003B800D5BF371700408327870C411106C693E73E
:1003C80007082324F70C85454145EF00900A8D4521
:1003D80013050008EF00F009EF00301B95450545AF
:1003E800EF00701F0145EF00701D138541902D200F
:1003F800B24017450020130565C8410131A883475D
:100408001508034505083385A7401375F507130537
:1004180015F813351500828023000508A300050888
:100428008280011122CC2EC606CE2A84C93FB2454D
:1004380001C983470408850793F7F7072300F408E1
:10044800834714083307F40085072300B70093F7A0
:10045800F707A300F408F240624405618280411165
:1004680022C426C24AC006C62A892E84B384C5007F
:1004780063189400B24022449244024941018280A8
:10048800830504004A850504693FDDB783470508ED
:10049800034715086300F702AA978387070023809C
:1004A800F50083470508850793F7F7072300F50844
:1004B8000545828001458280011152C406CE22CCB6
:1004C80026CA4AC84EC60347150883470508014A85
:1004D8006300F702B2892E89AA840144B305890012
:1004E800137AF40F6306340126854D3705047DF52C
:1004F800F24062445285D2444249B249224A0561D7
:1005080082809387419923A0F1C4938741A523A2B0
:10051800F1C4938741AD411123ACF1C29387C1B5B2
:1005280006C623AEF1C2EF0030107123938741B5A0
:10053800130720FCA380E70005472381E700214734
:1005480023820700A38207002383E700B2402380A9
:100558000700A38107004101828081471386C1C338
:1005680013F7F70F6364A7006F00501518423E9702
:1005780083460700850793C6F6FF2300D704CDB747
:100588008147138601C413F7F70F6364A7006F0050
:10059800501418423E9783460704850793C6F6FF12
:1005A8002300D708CDB7B787004003C76700137784
:1005B800F70F937627006386064C011106CE22CCEE
:1005C80026CA4AC84EC603C77700930600031377A6
:1005D80007036308D70203C777009306000213775F
:1005E800F703630CD71063EDE60C0946630DC724C7
:1005F8006363E60A63070718B78700400947238340
:10060800E7003787004083477700E207E18763DF29
:100618000732930720FC2301F702938601C488421E
:1006280093050002034775008347650022075D8F25
:100638002395E198834715002386F198034905001F
:10064800137609066311B626130710026388E72498
:10065800130720026384E700639FC72C62091359BC
:10066800894181466352090283D7A1989306000401
:100678003E8763F4F6001307000442074183998F0D
:100688009376F70F2395F198B78700402380D70218
:10069800130700FC6DA48D46630FD71C9146E31D1C
:1006A800D7F403C777001377070439D703C727039D
:1006B800134707082389E70203C58700D1352DBFF3
:1006C800930620026300D71A6366D7169306300292
:1006D800630DD71A93064002E310D7F203C7270326
:1006E800134707042389E70203C727031377C70FB4
:1006F800136727002389E70201B703C7C198954606
:100708006303D7069946631BD7069387A19803D43A
:10071800070013070004BE846374870013040004F1
:10072800938701C4138901998843420483250900EA
:1007380041802286EF00407B83D704009379F40F31
:10074800818F2395F198832709003E9423A88198E7
:10075800B78700402380370303C7270213470704DE
:100768002381E70251BD03C7370083C6A1981377D9
:100778000708558FA381E7000947DDB723800702E3
:10078800E5BF03C7870003C7C198631ED7089387CF
:1007980001C49C431307100A83C607006396E60644
:1007A80083C61700130710026390E60603C74700C5
:1007B800238CE1B403C7570083C76700A38CE1B457
:1007C800238DF1B403C551B583C741B522055D8DAD
:1007D80083C761B5C207C98F03C571B562055D8D51
:1007E800AD2BB78700402380070203C72702137782
:1007F800F70F2381E702378700408347270293C713
:1008080007082301F702CDBB9C43238AF1B413D711
:100818008700A38AE1B413D70701E183238BE1B4EE
:10082800A38BF1B445B72380070203C727021367D8
:100838002700C1B703C767021377C70F13672700DD
:100848002383E70255BB03C7770013770704E30543
:1008580007DA03C68700938781C38C4313854190C9
:10086800FD3E59BB03C7A7021377C70F13672700BD
:100878002385E70251B303C7770013770704E30D15
:1008880007D603C58700D13985BB03C7E7021377AD
:10089800C70F136727002387E702B9BB938741B5C2
:1008A80023A8F19865BBE31B06DA29466365F608B9
:1008B800170600001306066F8A07B2979C43B29783
:1008C800828783473500834625000946A207D58FCE
:1008D80093D687006383C6088D456387B608854726
:1008E800639EF6089387C1BD23A8F19883C7C1BD4D
:1008F8000144C207C18363F4E7002395F198938705
:10090800A19803D607009307000463F4C7001306F1
:100918000004938901999314060183A50900C180F5
:100928002686D92303A60900269623A8C1989307EB
:10093800F00FE315F4D2B78700401307F0FC2381CA
:10094800E702B787004009472383E700F240624483
:10095800D2444249B24905618280938701BF23A8E6
:10096800F19883C721BF69B793F7F70F8545638B64
:10097800B700A1C76381C7026388D7021304F00FC9
:10098800814785BF970700009387876423A8F1985C
:100998000144B947B9BF970700009387676423A844
:1009A800F1980144B147B1B79707000093870764EE
:1009B80023A8F1980144D1472DBF938741C323A8A9
:1009C800F19883C741C32DB7834725002395F19834
:1009D80071B183C781982300F50003D7A198854793
:1009E800E3FEE7C68547DDB7834725002384F198F2
:1009F800B5B11377F9018947E31FF7F2834745003B
:100A08006381E704636CF7000547E396E7F23787ED
:100A180000408347670293F7370799A01307100828
:100A28006388E70213072008E397E7F03787004059
:100A38008347A70293F7C70B93E727002305F7021D
:100A480031B9378700408347A70293F73707FDB7C7
:100A5800378700408347670293F7C70B93E7270060
:100A68002303F702E5BE2300050085BF2300050028
:100A78009C42A380070003D7A1988947E3F0E7BE0B
:100A8800B1B7937617008DC2A38107000947238168
:100A9800E70249472383E7022385E7022387E70222
:100AA80005472383E700828093764700FDDA03C772
:100AB80057001147FDB79387C1BD13060004A383F0
:100AC800C700130660F82384C70049476946238096
:100AD800E700A384C7000547130620028546A380C4
:100AE800E700414309472385C7000D4813067005F1
:100AF80023816700A381D7002382E700A385C7006D
:100B08002386D700A382070023830700A386070054
:100B18002387D700A387E700A388D7002388070186
:100B280013063004938701BF2381C700130600F81A
:100B38009145A548A383C700130680FC130540020E
:100B4800A380E7002382E700A382D7002384C7009D
:100B5800A386D70023801701A381070023830700FA
:100B6800A38417012385B700A38507002386070000
:100B78002387E700A389A700238CA700A38EA700DB
:100B8800A380A70219451546A38A67002381A702F7
:100B9800A38467021D452943130E10F8A387E700B5
:100BA8002388D700238BD700A38CD700238FE70097
:100BB800A38FE7002382D7022387D702A3880700E1
:100BC8002389C700238A0700A38BC700238D07004A
:100BD800A38D0700238EB7002380C702A3810702D5
:100BE800A382A7022383C702A383C703238407031F
:100BF80023850702A385670223861703A386B70206
:100C0800930620F8A3870702A38BD7029306000454
:100C18002388E702238CE702238FE702A38FE702EA
:100C2800A3886702254723890702A3890702238A25
:100C38000702A38AA702238BC702A38CD702238D9E
:100C48000702A38D0702238EA702A38EC702238063
:100C5800D704A380070423810704938741C3238112
:100C6800E70011472380B700A3800701A381E700AD
:100C78008280914763EEB7021707000013074738D1
:100C88008A05BA959C41BA978287B717004003A78F
:100C9800470D1345F5FF698F23AAE70C03A7070D36
:100CA800698F23A8E70C03A7070C798D23A0A70C4D
:100CB8008280B717004083A6470D1347F5FFF98ECA
:100CC80023AAD70C83A6070D558D23A8A70C83A6A6
:100CD800070C758F23A0E70C8280B717004003A785
:100CE800470D498F23AAE70C03A7070D1345F5FF06
:100CF80045BFB717004083A6470D1347F5FF758F0B
:100D080023AAE70C03A7070C598D4DB7B717004066
:100D180003A7470D498FEDB7B717004003D58700E4
:100D2800420541819377050491EB9377F501375597
:100D3800E801130505803345F50282809377050C99
:100D4800130700046397E7009377F50137459C1C68
:100D5800CDB72165130505D08280411122C406C68E
:100D68002A845D3F2947B307E502B2408D83B3D794
:100D7800870222449507B3D7E70237370040C207F6
:100D8800C1832316F7004101828071654111130563
:100D9800052006C6D937B7370040130770F82381F6
:100DA800E7000D47A381E70013070004A380E700CD
:100DB80005472387E700B24041018280373700406A
:100DC800834727001A0593F7F703C98F93F7F70F9F
:100DD8002301F7008280B737004003C7170019C9FD
:100DE800D98DA380B70003C7070013678700238046
:100DF800E700828093C5F5FFF98DA380B700828054
:100E0800B73700402147B736004091E1828003C6DA
:100E1800B700E30CC7FE05050346F5FFFD15C2053F
:100E28002384C600C181D5B7B78700402380070057
:100E38001307C0FC2386E700A386E70003D701C495
:100E48002398E70003D741C4239AE70003D781C357
:100E5800239CE70003D7C1C3239EE700894623816B
:100E6800D70249472383E7022385E7022387E7025E
:100E78002389D702A3810700130790022380E70084
:100E8800B716004003D7A6011367070C239DE60099
:100E98007D572383E700130710F8A380E7001D4759
:100EA8002381E7008280B78700402384A70203C715
:100EB800A7021377C70F2385E7028280B787004010
:100EC8002386A70203C7E7021377C70F2387E70222
:100ED8008280B78700402388A70203C727031377B8
:100EE800C70F2389E7028280B3C7A5008D8B33071C
:100EF800C50081E78D4763EEC700AA876370E50ADE
:100F080083C6050085078505A38FD7FEE3EAE7FEBC
:100F1800828093763500AA8791CA83C60500850723
:100F28008505A38FD7FE93F63700FDB79376C7FFE5
:100F3800138606FE63F0C70683A3050083A2450057
:100F480083AF850003AFC50083AE050103AE45013D
:100F580003A3850183A8C5019385450223A07700D3
:100F680003A8C5FF23A2570023A4F70123A6E7017E
:100F780023A8D70123AAC70123AC670023AE170112
:100F88009387470223AE07FF75B7904191079105F4
:100F980023AEC7FEE3EBD7FEE3E4E7F6828000006A
:100FA800CCFAFFFF52FAFFFF96F9FFFF96F9FFFF11
:100FB80096F9FFFF28FAFFFF22F9FFFF96F9FFFFD6
:100FC80032FAFFFF48FAFFFFC6FAFFFF0E03770069
:100FD800630068002E0063006E0000000C034300ED
:100FE8004800350037007800140332003000310023
:100FF80037002D0032002D00320035008EFCFFFF37
:10100800B6FCFFFFDEFCFFFFF6FCFFFF10FDFFFF55
:00000001FF
