:040000006F00500736
:1000040000000000000000006F0080086F008039CD
:1000140000000000000000000000000000000000DC
:1000240000000000000000000000000000000000CC
:100034006F004006000000006F00E00500000000B3
:100044006F0080056F0060056F0040056F0020059C
:100054006F0000056F00E0046F00C00400000000A2
:100064006F0060046F0040046F0020046F00000400
:100074006F00E0036F00C003000000006F00600326
:100084006F0040036F0020036F0000036F00E00265
:1000940001A001A001A001A001A001A001A001A054
:1000A40001A001A001A001A001A001A001A001A044
:1000B40001A001A001A001A001A001A0797122D694
:1000C4000018232EA4FCB7170040938707041307D6
:1000D40070052380E700B7170040938707041307D0
:1000E40080FA2380E700B71700409387B70483C7DB
:1000F400070013F7F70FB71700409387B704137778
:10010400F7FD1377F70F2380E700B71700409387B5
:100114000704238007008327C4FD93F70702638144
:100124000710B7170040A90783C7070093F7F70F15
:10013400918BADE3B717004093870704130770054D
:100144002380E700B717004093870704130780FA5A
:100154002380E700B7170040A90783C7070013F7F8
:10016400F70FB7170040A907136747001377F70F76
:100174002380E700232604FE01A801000100832751
:10018400C4FE85072326F4FE0327C4FE9307F04A22
:10019400E3F5E7FEB71700409387070413077005DC
:1001A4002380E700B717004093870704130780FAFA
:1001B4002380E7008327C4FD139707014183B71702
:1001C4000040A1077D8B420741832390E700010093
:1001D400010001000100B717004093870704238042
:1001E4000700B7170040938707041307700523809F
:1001F400E700B717004093870704130780FA2380AA
:10020400E700B72700409387778013071005238002
:10021400E700B7170040938707042380070009AA63
:100224008327C4FD93F7070463840710B7170040BE
:10023400A90783C7070093F7F70FC18BADE3B7177F
:10024400004093870704130770052380E700B7175E
:10025400004093870704130780FA2380E700B71749
:100264000040A90783C7070013F7F70FB71700402B
:10027400A907136707011377F70F2380E7002326E5
:1002840004FE01A8010001008327C4FE850723267C
:10029400F4FE0327C4FE9307F07CE3F5E7FEB717EB
:1002A400004093870704130770052380E700B717FE
:1002B400004093870704130780FA2380E70083270D
:1002C400C4FDC207C183FD8B139707014183B71790
:1002D4000040A10713670704420741832390E70006
:1002E4000100010001000100B717004093870704D3
:1002F40023800700B717004093870704130770058E
:100304002380E700B717004093870704130780FA98
:100314002380E700B72700409387778013073005D1
:100324002380E700B7170040938707042380070062
:100334000100325445618280411106C622C400087E
:100344008146014681451145DD2AB7170040938750
:100354000704130770052380E700B717004093874D
:100364000704130780FA2380E700B7170040938738
:10037400670483C7070013F7F70FB7170040938785
:100384006704136717001377F70F2380E700B71785
:10039400004093870704238007000100B2402244F1
:1003A40041018280411122C60008814601468145EF
:1003B40011457122B717004093870704130770058E
:1003C4002380E700B717004093870704130780FAD8
:1003D4002380E700B71700409387C7027D57239017
:1003E400E700B71700409387670483C7070013F734
:1003F400F70FB71700409387670413671700137745
:10040400F70F2380E700B717004093870704238082
:10041400070001A0797122D60018AA87231FF4FCD3
:100424000357E4FDBA879207998F2326F4FE01004F
:100434008327C4FEFD172326F4FE8327C4FEE5FBB1
:100444000100325445618280797106D622D40018A5
:10045400AA87231FF4FC231704FE09A81305803E72
:10046400553F8357E4FE85072317F4FE0357E4FE44
:100474008357E4FDE364F7FE0100B2502254456162
:1004840082802303048015472303E48001002302B0
:10049400A480828083076480E3CE07FE2303048064
:1004A400828083076480E3CE07FE03454480828014
:1004B40083076480E3CE07FE2302A4808280411177
:1004C40026C44AC24EC006C61377F50BAD47AA89A7
:1004D4002E8995446306F70019456537653F8D44B9
:1004E4004E854537FD59FD1463983401B240A2444A
:1004F4001249824941018280135509011375F50F90
:10050400453F2209CDB7011126CC06CEB704080019
:1005140051371545BD37713769372AC6A53F32456E
:100524009377150089EB136515001375F50FF240E9
:10053400E24405618280FD14E9FC0145CDBF3971B7
:1005440026DC4ADA4ED852D656D45AD25ED006DECB
:1005540062CE66CCB7E700E07D5783AA070022C6C7
:1005640003AA470023A0E71823A2E718B7170040FF
:10057400130770052380E704130780FA2380E70438
:1005840083C74704930B75FFB684E20793FBFB0F05
:100594008546AA892E8B328937240040E18701578A
:1005A40063FA76016308D5008946130700026313D2
:1005B400D5000157D98F93F7F70FB71C004023825A
:1005C400FC0411472303E4801305F00F5D3D094C3F
:1005D400D13563697C11B70707003E9B3787070055
:1005E4007955637EEB02B3079B00636AF702A94760
:1005F4006399F90689E48144713D26850DA0DA8565
:100604000945753D05090345F9FFFD14050B4D35F5
:1006140081C49377FB0FFDF7FD3569FD7D55B71751
:100624000040130770052380E704130780FA238032
:10063400E70403C74704418B2382E704F250B7E77A
:1006440000E023A0571123A24711E2543244525927
:10065400C259325AA25A125B825B724CE24C21613B
:100664008280A5476395F90685691309F00FB306DF
:100674009900B3742B01B6941349F9FFB37499002C
:10068400856B33796901416B9387F9FFB3F72701D0
:1006940099E363FC340193D94900C147E3E637FF8A
:1006A40099BF0569C1697D19D9B71305800D6388A0
:1006B4006901130500026384790113051008CA85D2
:1006C400FD3B913521DD4E99B3843441D9B7DA85A8
:1006D4002D45F533CA94E30099F20509D933A30FE4
:1006E400A9FED5BF9387F9FF93F7F70F636CFC0856
:1006F40003C75C04B70708001377070219E3B78739
:1007040007007955E37DFBF033079B00E3E9E7F04D
:1007140089476390F9048980D549E38E04ECDA852E
:100724000945713B11090327C9FF91472320E48040
:1007340003076480E34E07FE23033481FD17EDFBBA
:10074400FD14110B81C49377FB0FE9FF6D3B71F529
:10075400F1B58547E387F9F4DA852D458D3393891F
:10076400F4FFE38A04E8353B93F7390091EB8326E1
:1007740004800327090093074900E39FE6E63E89C6
:10078400CE84F1BFB5476396F9001305900BD539B4
:100794009DB5B1471305B00AE38BF9FE9947639EF3
:1007A400F902DA852D45213B81448D4BA149D53988
:1007B40063967401832704802320F9008504E39859
:1007C40034FF8327048013172B016355070023127A
:1007D400F90015B52322F90039BD9D476399F90243
:1007E40081451305B004E139BD44232009002322C7
:1007F4000900FD597D3193F77400CA9703C70700B8
:10080400FD14398D2380A700E39634FFEDB3A1478F
:100814006392F904CD398144630D0B008D47930431
:10082400C0036308FB009304000563048B01930475
:1008340040041375C507E30095DC194599319939CE
:10084400054581312685AD3109459D316D39E31466
:1008540005DAE9B391476399F90013056006153188
:1008640015391305900925B7E38709D8F15469B3FD
:10087400974100209381C1FF177100201301417833
:100884001305400097350020938585F7173600201F
:100894001306067E63FAC5008322050023A05500D3
:1008A40011059105E3EAC5FE170500001305C57A95
:1008B400973500209385C57B173600201306467BA9
:1008C40063FAC5008322050023A055001105910594
:1008D400E3EAC5FE17350020130585799735002016
:1008E400938505796377B500232005001105E36D31
:1008F400B5FE9302800873A00230973200209382E1
:1009040022F093E212007390523097020000938217
:1009140002017390123473002030411106C622C4C0
:1009240000081305800497300020E78020F98D45E6
:10093400056559208D45096541208D450545252CC2
:100944008D4541450D2C8D45130500042D248D4501
:10095400130500080D248D451165312CB75700404F
:100964008D0711472380E7001145E9268546054692
:10097400C1450545B52B85460546C14509458D2B21
:1009840085460546C1451145A52385460546C1450D
:100994002145B92B85460546C1454145912B8546E0
:1009A4000546C14513050002A12385460546C145F8
:1009B40013050004352B01A0011122CE00102326BB
:1009C400A4FE2324B4FE032784FE914763E0E71AC0
:1009D400832784FE139727009707000093874763B4
:1009E400BA9798439707000093878762BA978287DC
:1009F400B71700409387470B94438327C4FE13C75C
:100A0400F7FFB71700409387470B758F98C3B71745
:100A140000409387070B94438327C4FE13C7F7FF53
:100A2400B71700409387070B758F98C3B71700401B
:100A34009387070A94438327C4FE13C7F7FFB717A6
:100A440000409387070A758F98C315A2B717004013
:100A54009387470B94438327C4FE13C7F7FFB71745
:100A640000409387470B758F98C3B717004093874F
:100A7400070B9443B71700409387070B0327C4FE63
:100A8400558F98C3B71700409387070A9443832769
:100A9400C4FE13C7F7FFB71700409387070A758F83
:100AA40098C3F1A0B71700409387470B9443B71737
:100AB40000409387470B0327C4FE558F98C3B7178D
:100AC40000409387070B94438327C4FE13C7F7FFA3
:100AD400B71700409387070B758F98C3B71700406B
:100AE4009387070A94438327C4FE13C7F7FFB717F6
:100AF40000409387070A758F98C395A8B7170040DD
:100B04009387470B94438327C4FE13C7F7FFB71794
:100B140000409387470B758F98C3B717004093879E
:100B2400070A9443B71700409387070A0327C4FEB4
:100B3400558F98C32DA8B71700409387470B94434C
:100B4400B71700409387470B0327C4FE558F98C3FC
:100B5400B71700409387070A9443B7170040938759
:100B6400070A0327C4FE558F98C311A00100010092
:100B7400724405618280011122CE00102326A4FE56
:100B84002324B4FE032784FE914763E0E71A8327F6
:100B940084FE13972700970700009387A748BA9706
:100BA4009843970700009387E747BA978287B71758
:100BB40000409387470D94438327C4FE13C7F7FF70
:100BC400B71700409387470D758F98C3B717004038
:100BD4009387070D94438327C4FE13C7F7FFB71702
:100BE40000409387070D758F98C3B717004093870C
:100BF400070C94438327C4FE13C7F7FFB7170040BD
:100C04009387070C758F98C315A2B7170040938775
:100C1400470D94438327C4FE13C7F7FFB71700405B
:100C24009387470D758F98C3B71700409387070DB7
:100C34009443B71700409387070D0327C4FE558FCD
:100C440098C3B71700409387070C94438327C4FEC7
:100C540013C7F7FFB71700409387070C758F98C326
:100C6400F1A0B71700409387470D9443B71700408E
:100C74009387470D0327C4FE558F98C3B7170040C9
:100C84009387070D94438327C4FE13C7F7FFB71751
:100C940000409387070D758F98C3B717004093875B
:100CA400070C94438327C4FE13C7F7FFB71700400C
:100CB4009387070C758F98C395A8B717004093873F
:100CC400470D94438327C4FE13C7F7FFB7170040AB
:100CD4009387470D758F98C3B71700409387070C08
:100CE4009443B71700409387070C0327C4FE558F1E
:100CF40098C32DA8B71700409387470D9443B7179F
:100D040000409387470D0327C4FE558F98C3B71738
:100D140000409387070C9443B71700409387070C50
:100D24000327C4FE558F98C311A00100010072442B
:100D340005618280011122CE00102326A4FE032720
:100D4400C4FE9D4763E1E71A8327C4FE1397270077
:100D5400970700009387472EBA9798439707000098
:100D64009387872DBA978287B7570040890783C72F
:100D7400070013F7F70FB75700408907419B137714
:100D8400F70F2380E7008DA2B7570040890783C778
:100D9400070093F7F70FE207E187C19BE207E187BA
:100DA40093E71700139787016187B75700408907B6
:100DB4001377F70F2380E70005AAB7570040890788
:100DC40083C7070093F7F70FE207E187C19BE207A8
:100DD400E18793E74700139787016187B75700407E
:100DE40089071377F70F2380E700FDA8B757004062
:100DF400890783C7070093F7F70FE207E187C19BD1
:100E0400E207E18793E75700139787016187B75794
:100E1400004089071377F70F2380E700F1A0B75745
:100E24000040890783C7070093F7F70FE207E187BC
:100E3400C19BE207E18793E78700139787016187E6
:100E4400B757004089071377F70F2380E70069A895
:100E5400B7570040890783C7070093F7F70FE207E6
:100E6400E187C19BE207E18793E797001397870126
:100E74006187B757004089071377F70F2380E7008E
:100E8400A5A0B7570040890783C7070093F7F70F5A
:100E9400E207E187C19BE207E18793E7C700139765
:100EA40087016187B757004089071377F70F2380BD
:100EB400E7001DA8B7570040890783C7070093F7C9
:100EC400F70FE207E187C19BE207E18793E7D700C9
:100ED400139787016187B757004089071377F70F86
:100EE4002380E70011A001000100724405618280A3
:100EF400797122D60018AA872E87232CC4FC232AB2
:100F0400D4FCA30FF4FCBA87230FF4FC832744FD1D
:100F14009DEBB757004083C7070093F7F70F13976C
:100F2400870161878307F4FD93C7F7FFE207E18731
:100F3400F98F139787016187B75700401377F70F2D
:100F44002380E7007DA8832784FD9DC3B757004015
:100F5400850783C7070093F6F70FB7570040850747
:100F64000347F4FD558F1377F70F2380E70025A877
:100F7400B7570040850783C7070093F7F70F139708
:100F8400870161878307F4FD93C7F7FFE207E187D1
:100F9400F98F139787016187B75700408507137747
:100FA400F70F2380E700A30704FE05A80347F4FD19
:100FB4008347F4FEB357F740858B99CB0347F4FE80
:100FC400B75700409107BA970347E4FD2380E70031
:100FD4008347F4FE8507A307F4FE0347F4FE9D4709
:100FE400E3F6E7FCB757004083C7070093F6F70F13
:100FF400B75700400347F4FD558F1377F70F23804D
:10100400E70001003254456182800000E4F9FFFFEB
:1010140040FAFFFF98FAFFFFF0FAFFFF2AFBFFFFF9
:101024008EFBFFFFEAFBFFFF42FCFFFF9AFCFFFF82
:10103400D4FCFFFF34FDFFFF54FDFFFF86FDFFFFDF
:10104400B8FDFFFFEAFDFFFF1CFEFFFF4EFEFFFFA2
:0410540080FEFFFF1C
:00000001FF
